:0300AB000200351B
:0B00A000EF1FAC0670011E4C70F62232
:10003500D2A07F057E001200A0C2A07F507E0012D4
:1000450000A0D2A07F087E001200A0A2A0E433FD8C
:090055007F047E001200A0AF053B
:01005E00227F
:02000300AD0747
:10000500E4FBD2A0E4FFFE1200A0C2A0E4FFFE12B2
:1000150000A0ED1392A07F017E001200A0D2A0EDFA
:10002500C313FD0BBB08DBD2A07F017E000200A03D
:10005F00E4FBD2A07F017E001200A0C2A0EDC3136B
:10006F00FDD2A030A0034305807F037E001200A0C5
:08007F000BBB08DED2A0AF05A7
:010087002256
:0B0088007F33120003E4FF0FBF04FCF5
:01009300224A
:0300000002009467
:0C009400787FE4F6D8FD7581070200AB10
:00000001FF
