:10155300202000BBB6D3ADCAB9D3C3CAE4C8EBB726
:10156300A8A3AC00CAE4C8EBC4DAC8DDCAD4CAD4A1
:10157300BFB4A3A100CACAD3C3D0CDB9A6C4DCA348
:10158300AC00C7EBBDF7C9F7CAB9D3C3A3A1005FCA
:041593000000000054
:10150C00420069000041007A00410067004100760A
:10151C00004100750041007401C109C18A41006895
:01152C0000BE
:10176400E4FEEEC39F500AE4FD0DEDB46EFB0E8063
:01177400F183
:011775002251
:0A17BD007F0890005FE4F0A3DFFC5A
:0117C70022FF
:101472007F021213C87F11900084E4F0A3DFFC9076
:101482000000E0FBA3E0FAA3E0F9900003120A4E89
:10149200E4FF12099CFE601374842FF582E4340089
:1014A200F583EEF0740129F9E43AFA0FEFB410E291
:0D14B2007B017A007984E4FD7F020211B510
:100FB800900067E075F008A4900084F0E490009732
:100FC800F0900000E0FBA3E0FAA3E0F9900006121D
:100FD8000A4E900077EBF0A3EAF0A3E9F07F031242
:100FE80013C8E4900085F0900084E0FFA3E0C39F5D
:100FF8005022900077E0FBA3E0FAA3E0F912099CE5
:101008006012900078E475F0011209C7900085E03D
:1010180004F080D3900077E0F9A3E0FAA3E0900011
:101028009DC9F0A3EAF0A3E9F0A3E4F0A37408F0E3
:101038007B017A00796B121360E4900073F09000E2
:0F10480085F0900085E0FFC3941040030210DB99
:10105700EFC313900098F020E04F900085E020E068
:011067003652
:101068001313543F04FF900099F090007AE0240194
:10107800FDE433FCEFB50516E4B50412900085E0F5
:101088002486F582E43400F583742AF0803C9000CD
:0410980099E0243087
:10109C008024900085E02486F582E43400F5837486
:1010AC002EF08022900097E0FF04F0746B2FF582F5
:1010BC00E43400F583E0FF900085E02486F582E4BB
:0610CC003400F583EFF093
:1010D200900085E004F002104AE4900096F07B0153
:0A10E2007A007986FD7F030211B544
:10175100900067E0D394004009E014F090007A749F
:0317610003F02270
:0C17A500900067E004F0E490007AF0226D
:10142000900087EBF0A3EAF0A3E9F0900074E0D31A
:1014300094074024A3E004F0E4900074F0A3E0D308
:1014400094014014E4FF1213C87F011213C8E49002
:101450000075F090007404F0900075E0FF90007447
:10146000E0FD04F0900087E0FBA3E0FAA3E0F902BE
:0214700011B5B4
:1015970078847C007D017BFF7A1579947E007F0338
:1015A70012097690007AE025E0FF246BF582E43497
:1015B70000F583E0900084F0746C2FF582E434002A
:1015C700F583E0900085F07B017A0079840214208E
:10161600900075E0FFC39400401B900074E0D394E3
:10162600004002800DEFD39400400A9000747407C6
:10163600F0A3E014F0900075E0FF900074E0FD7BED
:08164600FF7A1579530211B57A
:0E179700758901758C3C758AB0D2AFD2A9223B
:100E72001216F07BFF7A157956E4FD7F021211B546
:100E82007BFF7A157967E4FD7F031211B51217977C
:100E92001215D7900082EEF0A3EFF0F47002EEF498
:100EA20060EE900082E07002A3E0702D20090B7BBF
:100EB200FF7A15795312142080D61215971217BD96
:100EC200E4900069F0A3F090007AF0C2097F021268
:100ED20013C87F031213C880B7900082E07004A386
:100EE200E064017025308C04C28C80A4D28C7BFF1C
:100EF2007A1579787D027F021211B57BFF7A157916
:100F020085E4FD7F031211B58086900082E07004B3
:100F1200A3E0640A701C200906121616020E9290B3
:100F2200007AE0D394004005E014F08028121751B3
:100F32008023900082E07004A3E0640B701D2009FE
:100F420003020E9290007AE0C394035005E004F08D
:100F520080031217A5120FB8020E92D390006AE016
:100F62009405900069E0648094804003020E92D25E
:100F720009E4900067F0900082A3E02430FF900023
:100F820069E475F0011209DDFC745F25F0F58274E5
:100F9200003CF583EFF09000877401F0A37400F039
:100FA200A37400F07B017A00795F120BBD121472F8
:030FB200120FB863
:030FB500020E9297
:03000B000212E4FA
:1012E400C0E0C0F0C083C082C0D075D000C000C0D0
:0D12F40001C002C003C004C005C006C00751
:10130100758C3C758AB0900068E0FF04F0EFC394DF
:101311000A4031900068E4F0900075E090007BF0A5
:10132100900074E090007CF090007BE0FFA3E0FD72
:101331007BFF300A067A15799280047A1579531267
:0413410011B5B20A26
:10134500D007D006D005D004D003D002D001D000FC
:0B135500D0D0D082D083D0F0D0E032A6
:0B17C800EF1FAC0670011E4C70F622F3
:1010EC00EE600302119CEF120AD71191B7117BBB72
:1010FC00115ABD1139BE1121D71170DB114FDD1101
:10110C002EDE1186E71165EB1144ED1124EE119CD6
:10111C00FF0000119CE4807A900084E4F0A304F0BA
:10112C008076900084E4F0A37402F0806B900084CD
:10113C00E4F0A37403F08060900084E4F0A37404E2
:10114C00F08055900084E4F0A37405F0804A900080
:10115C0084E4F0A37406F0803F900084E4F0A37460
:10116C0007F08034900084E4F0A37408F080299098
:10117C000084E4F0A37409F0801E900084E4F0A3D2
:10118C00740AF08013900084E4F0A3740BF08008D0
:10119C0074FF900084F0A3F0900084E0FEA3E0FFC5
:0111AC002220
:1015D70075A00FE5A0540F640F602CE5A0540F64AD
:1015E7000F6024E5A0540FFF44F0F5A0E5A054F0E8
:1015F700FEE5A0540FB50707E5A054F06E60F2EEC4
:0E1607002FFFE433FE80047FFF7E001210EC04
:0116150022B2
:05000300202020200078
:06170E00C2B67F647E00FC
:10171400E4FDFCC3ED9FEC9E50070DBD00010C8061
:01172400F2D2
:0117250022A1
:10167E0012168FED54F0FF12168FED540FC454F066
:01168E00FF5C
:10168F00E4FEC2B6EF30E704D2B78002C2B7D2B6DB
:09169F00EF25E0FF0EEEB408E9AE
:0116A800221F
:10164E00E4FA12170ED2B630B70109E925E0F90A0D
:10165E00EAB408EEE4FA12170ED2B630B7010BEB6D
:0F166E0025E0FB0AEAB408EEEB24F059540FFF15
:01167D00224A
:101726007FFA12168F12164EEFD3947F4004D20B17
:061736008002C20BA20BB1
:01173C00228A
:0C17B100AD07D2B57FF812167EC2B5223B
:1016D00090009BE0FBA3E475F0011209DDA9F0FA8C
:0416E00012099CFF50
:0C16E400AD07D2B57FFA12167EC2B52207
:0F178800AC051217B1AF041216E4AF030216E45A
:0811AD00AF047BFF7A00790317
:0E11B50090009AEDF0A3EBF0A3EAF0A3E9F0AE
:1011C300EF14601214601714601C2403701E900047
:1011D3009E7480F0801690009E7490F0800E9000B4
:1011E3009E7488F0800690009E7498F090009BE0B7
:1011F300FBA3E0FAA3E0F912099C605890009AE07F
:10120300FF90009EE02FFF1217B11216D01216D0D6
:1012130090009AE004F0E0B408D290009EE02478B5
:10122300601C24F8601024F8601C2418701E9000C1
:101233009E7490F0801690009E7488F0800E90004B
:101243009E7498F0800690009E7480F0E490009A5B
:04125300F00211EFA5
:011257002274
:1016F000C2B51217107F301217B17F0C1217B17FCD
:0E170000011217B17F021217B17F800217B1DC
:10173D00E4FF1213C87F011213C87F021213C87F72
:04174D00030213C8B8
:1013C800AC077BFF7A007903E4FD1211B57D0112A9
:1013D80011AD7D021211ADAF047BFF7A0079037D58
:1013E800031211B5AF047BFF7A0079037D04121153
:1013F800B5AF047BFF7A0079037D051211B5AF0400
:101408007BFF7A0079037D061211B5AF047BFF7A62
:081418000079037D070211B504
:10000E0000320061003632006D61003634006E69D8
:10001E0000383200746100383400746900393200DF
:10002E00776100393600776F003938007975003204
:10003E0032360063616F0032343800636875003405
:10004E00363800676F75003432360068616F0035E0
:10005E003432006A6961003932360077616E0039D8
:10006E00383300787565003336363400646F6E674A
:10007E000035343236006C69616F00383436340026
:10008E0074696E6700393236340077616E670039F5
:10009E00383236007975616E000D0ACAE4C8EBCAB3
:1000AE00D7D6CEAA3A25730D0A00B2BFB7D6C6A5CB
:1000BE00C5E4CEBBCA3A25640D0A00B2BFB7D6C698
:1000CE00A5C5E4BDE1B9FB3A25732C25730D0A00D5
:1000DE00CDEAC8ABC6A5C5E4B8F6CA3A25640D0A82
:1000EE0000CDEAC8ABC6A5C5E4B5C4BDE1B9FB3ABF
:1000FE000D0A0025732C25730D0A00C3BBD3D0C87F
:10010E00CEBACEC6A5C5E4BDE1B9FBA3A10D0A00CA
:10011E0000B0A1B0A2EBE7DFB9EFB98581E0C4E58D
:10012E0048BAC7EBE700B2DDB2D9B2DAB2DBB2DC65
:10013E00DCB3E0D0E4EEF3A9F4BD00B3F6B3F5B34F
:10014E00F7B3F8B3F9B3FAB3FBB3FCB3B3FEB4A190
:10015E00B4A2B4A3B4A4B4A5B4A6D0F3D8A1DBBB07
:10016E00E2F0E3C0E7A9E8C6E8FAE9CBF1D2F2DCA7
:10017E00F5E9F7ED00B6ABB6ACB6ADB6AEB6AFB60A
:10018E00B0B6B1B6B2B6B3B6B4DFCBE1B4E1BCEB48
:10019E00B1EBCBEBD8EDCFF0B400B9B3B9B4B9B580
:1001AE00B9B6B9BBB9B8B9B9B9BAD8FEDAB8B9B730
:1001BE00F3F4E1B8E5DCE6C5E7C3E8DBEAEDECB065
:1001CE00F3D1F7B800BAC2BAC3BAC4BAC5EABBF023
:1001DE00A9BAC1BAC6E5B0B8E4BABEBABFBAC0BA17
:1001EE00D1DDEFDEB6E0C6E0E3E5A9F2ABF2BA0090
:1001FE00BCD2BCD3BCCEBCD0BCD1BCD4BCD5BCD67E
:10020E00BCD7BCD8BCD9BCDABCDBBCDCBCDDBCDE2C
:10021E00BCCFC7D1D8C5D9A4DBA3DDE7E1B5E4A433
:10022E00E5C8E7ECEAA9EBCEEDA2EEF2EEFEEFD8D2
:10023E00F0E8F0F1CAF2CCF3D5F4C2F5CA00C1CBA6
:10024E00C1C3C1CFC1C4C1C5C1C6C1C7C1C8C1C95F
:10025E00C1CAC1CCC1CDC1CEDEA4DECDE0DAE2B2E0
:10026E00E5BCE7D4EEC9F0D300C2E8C2E9C2EAC2E7
:10027E00EBC2ECC2EDC2EEC2EFC2F0C4A6C4A8DF60
:10028E00E9E1EFE6D6E8BFF3A100C4E3C4D8C4E2C7
:10029E00C4E1C4DDC4DEC4DFC4E0C4E4C4E5C4E626
:1002AE00C4E7D9A3DBE8E2A5E2F5EAC7ECBBECF2C2
:1002BE00EDABEDFEEEEAF6F200CBFACBFBCBFCCBD0
:1002CE00CBFE00CCDDCCDECCDFCCE0CCE1CCE2CC86
:1002DE00E300CCFCCCCDA2CDA3CDA4E6C3EEFAF2C6
:1002EE00D1F6AAE8E800CDDACDDBCDDCCDDDCDDE72
:1002FE00CDDF00C2FBCDE3CDE4CDE5CDE6CDE7CD40
:10030E00E8CDE9CDEACDEBCDECCDEDCDEECDEFCD1B
:10031E00F0CDF1CDF2CDF3D8E0DCB9DDB8DDD2E62B
:10032E00F2EAE7BAE7FEEBE4EEB5F7B400CDF4CDB2
:10033E00F5CDF6CDF7CDF8CDF900CED2CED5E0B8CD
:10034E00CECFCED0CED1CED3CED4CED6CECED9C1A8
:10035E00DDABE1A2F6BBE4D7EBBFEDD200CFF7D118
:10036E00A5D1A6D1A7D1A8D1A9D1AAF7A8DACAE05A
:10037E00E5EDB4F5BD00D3E0D3EBD3DAD3E8D3EE9D
:10038E00D3F1D3EAD3D3FED4A1D3E3D3D8D3D9D3E5
:10039E00DBD3DDD3DED3DFD3E1D3E2D3E4D3E5D3B6
:1003AE00E6D3E7D3E9D3ECD3EDD3EFD3F0D3F2D347
:1003BE00F3D3F4D3F5D3F6D3F7D3F8D3F9D3FAD3E3
:1003CE00DCD3FBD3FCD4A2D4A3D4A4D4A5D4A6F35B
:1003DE00C4D8B9DAC4ECB6DACDCEB5CEBED8AED866
:1003EE00F1D9B6DDC7DDD2DDF7DEEDE0F4E0F6E102
:1003FE00CEE1FCE2C0E2C5E2D7E3D0E5F7E5E6A543
:10040E00E6FAE8A4EAC5EAECEBE9ECA3ECCFECD90A
:10041E00ECDBEDB1EDB2EEDAF0C1F0D6F0F5F0F6C0
:10042E00F1BEF1C1F2E2F2F5F4A7F4A8F6A7F6B91F
:10043E0000D4ADD4AAD4B0D4B1D4B2D4B4D4B5D43B
:10044E00B6D4B8D4B9D4BAD4A7D4A8D4A9D4ABD47A
:10045E00ACD4AED4AFD4B3D4B7E6C2DCABDCBEDE24
:10046E00F2E0F7E3E4E8A5E9DAEBBCEDF3F0B0F384
:10047E00A2F3EEF6BD00FF000EFF000EFF011EFF01
:10048E00000FFF0011FF011FFF0013FF0016FF02F8
:10049E0077FF0019FF001CFF0298FF001FFF0022CC
:1004AE00FF02C7FF0025FF0028FF02D1FF002BFF30
:1004BE00002EFF02F4FF0031FF0034FF0348FF005F
:1004CE0037FF003AFF0384FF003DFF0041FF013478
:1004DE00FF0045FF0049FF0149FF004DFF0051FF9E
:1004EE0001A8FF0055FF0059FF01D3FF005DFF007B
:1004FE0061FF01FEFF0065FF0069FF0301FF006D54
:10050E00FF0071FF036BFF0075FF007AFF0183FF91
:10051E00007FFF0084FF024CFF0089FF008EFF0268
:10052E00E0FF0093FF0098FF033BFF009DFF00A23A
:03053E00FF043F78
:10152D00602100CCFF1776000000000000000000D5
:10153D00000000000000000000000000000000009E
:05154D00000000000099
:0B14BF00900094EBF0A3EAF0A3E9F02A
:1014CA00E4FF900097E0FBA3E0FAA3E0F912099C7D
:1014DA00FE900094E0FBA3E0FAA3E0F912099CFD58
:1014EA00B5061EED70047FFF80170F900095E47516
:1014FA00F0011209C7900098E475F0011209C7803B
:01150A00C11F
:01150B0022BD
:0B0BBD00900084EBF0A3EAF0A3E9F045
:100BC80090008AE4F0A3F0A3F0A3F0A3F0A3F0A3AD
:100BD800F0900092F0A3F090008A74FFF0A37404E0
:100BE800F0A37484F0A3E4F0A37415F0E4A3F0A3D5
:100BF800F090008DE0FEA3E0FFA3E0FCA3E0FDC3BE
:100C08009FEE6480F8EC6480984003020CE1900445
:100C18008475F009ED1209F3EC75F009A42583F544
:100C280083E493F9740193FA740293900097C9F0DE
:100C3800A3EAF0A3E9F0900084E0FBA3E0FAA3E0C4
:100C4800F91214BF900091EFF0607AE0B4FF409081
:100C5800008FE0FEA3E0FF7C007D091209B57484D3
:100C68002FF974043EFA7BFFC003C002C001900054
:100C780087E0FBA3E0FAA3E0F9900092E0FF04F01C
:100C880075F003EFA4F58285F083120A7E80369012
:100C98000093E0FF900091E0FED39F4028900093DE
:100CA800EEF090008FE0FEA3E0FF7C007D091209C2
:100CB800B574842FF974043EFA90008A74FFF0A387
:100CC800EAF0A3E9F0900090E004F06003020BF969
:100CD80090008FE004F0020BF9900092E0702DA3D1
:100CE800E0602990008AE0FBA3E0FAA3E0F9C003E2
:100CF800C002C001900087E0FBA3E0FAA3E0F9126C
:100D080009FF900093E04480900092F0900092E0F8
:010D1800FFDB
:010D190022B7
:101776009000877401F0A37400F0A374CFF0120BED
:02178600BD2282
:0B0D1A009000EDEBF0A3EAF0A3E9F07D
:100D2500E4A3F0A3F0C0029000CCA3E0FAA3E0F5A1
:100D3500828A83D002120B019000F0EFF030E77247
:100D45009000EDE0F9A3E0FAA3E09000A7C9F0A3B5
:100D5500EAF0A3E9F07BFF7A0079A71205AC7BFFE7
:100D65007A0079B89000F0E0547F9000A7F0120562
:100D7500AC9000CFE0FBA3E0FAA3E0F990000312EA
:100D85000A4E9000A7EBF0A3EAF0A3E9F09000CF9C
:100D9500E0FBA3E0FAA3E0F9900006120A4E9000EA
:100DA500AAEBF0A3EAF0A3E9F07BFF7A0079C90288
:100DB5000E6E9000F0E07003020E689000EDE0F911
:100DC500A3E0FAA3E09000A7C9F0A3EAF0A3E9F035
:100DD5007BFF7A0079A71205AC7BFF7A0079DE905C
:100DE50000F0E09000A7F01205AC7BFF7A0079EFE8
:100DF5001205ACE49000F1F09000F0E0FFA3E0C331
:100E05009F5069E0FF75F003A424CFF582E4340018
:100E1500F583E0FBA3E0FAA3E0F9900003120A4E84
:100E25009000A7EBF0A3EAF0A3E9F0EF75F003A4B7
:100E350024CFF582E43400F583E0FBA3E0FAA3E0D8
:100E4500F9900006120A4E9000AAEBF0A3EAF0A36F
:100E5500E9F07BFF7A0179011205AC9000F1E0041D
:0C0E6500F080957BFF7A0179091205AC42
:010E7100225E
:0300000002125891
:0C125800787FE4F6D8FD75812102129F1A
:1008A600E709F608DFFA8046E709F208DFFA803E34
:1008B60088828C83E709F0A3DFFA8032E309F60821
:1008C600DFFA8078E309F208DFFA807088828C8389
:1008D600E309F0A3DFFA806489828A83E0A3F6083D
:1008E600DFFA805889828A83E0A3F208DFFA804C17
:1008F60080D280FA80C680D4806980F280338010EE
:1009060080A680EA809A80A880DA80E280CA803356
:1009160089828A83ECFAE493A3C8C582C8CCC583CE
:10092600CCF0A3C8C582C8CCC583CCDFE9DEE7809E
:100936000D89828A83E493A3F608DFF9ECFAA9F01D
:10094600EDFB2289828A83ECFAE0A3C8C582C8CC73
:10095600C583CCF0A3C8C582C8CCC583CCDFEADE8C
:10096600E880DB89828A83E493A3F208DFF980CCEE
:1009760088F0EF60010E4E60C388F0ED2402B404E7
:100986000050B9F582EB2402B4040050AF2323458E
:0609960082239008F673B5
:10099C00BB010689828A83E0225002E722BBFE0259
:0909AC00E32289828A83E493228C
:1009B500EF8DF0A4A8F0CF8CF0A428CE8DF0A42E56
:0209C500FE2210
:1009C700C5F0F8A3E028F0C5F0F8E58215827002BB
:0609D7001583E038F02258
:1009DD00A3F8E0C5F025F0F0E582158270021583CD
:0609ED00E0C838F0E8222A
:0C09F300A42582F582E5F03583F583220F
:1009FF00BB011A89828A83D0F0D0E0F8D0E0F9D019
:100A0F00E0FAD0E0FBE8C0E0C0F0020B965016E928
:100A1F00F8D083D082D0E0F9D0E0FAD0E0FBC082EA
:100A2F00C083020B6DBBFE16E9F8D083D082D0E0F5
:0F0A3F00F9D0E0FAD0E0FBC082C083020BA822FE
:100A4E00BB010DE58229F582E5833AF583020B762B
:100A5E005007E92582F8020B64BBFE07E92582F8F0
:100A6E00020B9FE58229F582E5833AF583020BB1ED
:100A7E00BB0120E58229F582E5833AF583D0F0D0DB
:100A8E00E0F8D0E0F9D0E0FAD0E0FBE8C0E0C0F04A
:100A9E00020B965018E92582F8D083D082D0E0F967
:100AAE00D0E0FAD0E0FBC082C083020B6DBBFE1813
:100ABE00E92582F8D083D082D0E0F9D0E0FAD0E0F8
:090ACE00FBC082C083020BA822C8
:100AD700D083D082F8E4937012740193700DA3A3AE
:100AE70093F8740193F5828883E4737402936860C2
:060AF700EFA3A3A380DFC2
:060AFD008A838982E47384
:10054100E50824A7F582E43400F583E0050822904C
:1005510000A43007039000A7E475F001120B7F029D
:10056100099C2000E97F2ED2008018EF540F2490BF
:10057100D43440D4FF30040BEF24BFB41A0050032D
:100581002461FFE50960021509050CE50C700205FF
:100591000B30070E9000A4E475F001120B7FEF02FF
:1005A1000B300216A97403D2078003E4C207F508D1
:1005B1009000A4120B96E4F509F50BF50CE5096022
:1005C100077F2012058480F5750AFFC201C200C2AF
:1005D10002C203C205C206C208120550FF700D30E7
:1005E10007057F00120595AF0CAE0B22B4255FC243
:1005F100D5C204120550FF24D0B40A00501A75F078
:100601000A780930D50508B6FF0106C6A426F620EA
:10061100D5047002D20380D924CFB41A00EF50045C
:10062100C2E5D204020796D20180C6D20080C0D2B0
:100631000280BCD2D580BAD20580B47F2012058455
:100641002002077401B5090040F1120541FF1205AE
:10065100840205BED208D2068095120541FB12051F
:1006610041FA120541F94A4B700679677A087BFF16
:1006710020022EE509602A7E008E82758300120B0E
:100681000360060EEE650A70F0C2D5EBC0E0EAC069
:10069100E0E9C0E0EE1207DDD0E0F9D0E0FAD0E009
:1006A100FB12099CFF60AAEBC0E0EAC0E0E9C0E0F0
:1006B100120584D0E02401F9D0E03400FAD0E0FB47
:1006C100E50A0460DCD50AD980877BFF7A0779D9EE
:1006D100D202809C791080027908C206C208800883
:1006E100D2D5790A8004790AC2D5E50A047002F5E7
:1006F1000AE4FAFDFEFF120541FC7B0820011312FA
:100701000541FD7B1030000A120541FE120541FF33
:100711007B20EC3382D592D55013C3E43000069F81
:10072100FFE49EFEE42001039DFDE49CFCE4CBF884
:10073100C201EC700CCFCECDCCE824F8F870F38078
:1007410017C3EF33FFEE33FEED33FDEC33FCEB3338
:10075100FB994002FB0FD8E9EB300105F8D0E0C46A
:1007610048B201C0E00AEC4D4E4F78207B0070C2C8
:10077100EAB50A0040BCC0E01207DFD0F0D0E020AB
:100781000104C4C0E0C4B201C0F012056DD0F0D5BF
:10079100F0EB0205BE120AD7065B5306D558062CAC
:1007A1004C06284206D94F06E14406E14906414379
:0807B10006E75506CB4606CB16
:1007B9004506CB4708875006302D06342E06572BA1
:1007C90006382306552008702A05F0480000064F10
:1007D9003F3F3F00790AA2D5200314300509B9101B
:1007E900020404B9080104A2D5200602500104201C
:1007F90002689202B509005034C0E07F2030031925
:100809007F30A20272067205500F120836C202C268
:1008190006C205C2087F30800F300503E9C0E01227
:100829000584300503D0E0F9D0E0B509CC300517CF
:100839007F30B9100C1205847F583004077F788007
:1008490003B908031205843002057F2D0205847F50
:10085900202008F87F2B2006F322920280CF286EF1
:10086900756C6C2900D2011205413001F8C201787A
:100879000930D50108F60205F02D504349581205F3
:10088900412403B405004001E490088293120575E0
:0D089900743A120575D2037509040206D5E4
:1013600090009AEBF0A3EAF0A3E9F0E49000A2F079
:10137000A3F09000A074FFF5F01209DD45F0603C89
:1013800090009DE0FBA3E0FAA3E0F912099CFF9016
:10139000009AE0FBA3E0FAA3E0F99000A2E475F064
:1013A000011209DD85F082F583EF120B42EF60C276
:1013B00090009EE475F0011209C780B690009AE093
:0813C000FBA3E0FAA3E0F9220F
:10126400020E72E493A3F8E493A34003F68001F220
:1012740008DFF48029E493A3F85407240CC8C3338B
:10128400C4540F4420C8834004F456800146F6DF5A
:10129400E4800B010204081020408090150CE47EC9
:1012A400019360BCA3FF543F30E509541FFEE4934F
:1012B400A360010ECF54C025E060A840B8E493A316
:1012C400FAE493A3F8E493A3C8C582C8CAC583CA41
:1012D400F0A3C8C582C8CAC583CADFE9DEE780BEF9
:011552000098
:100B0300BB010CE58229F582E5833AF583E02250A7
:100B130006E92582F8E622BBFE06E92582F8E222F1
:0D0B2300E58229F582E5833AF583E493220B
:100B3000BB010689828A83F0225002F722BBFE01A4
:020B4000F3229E
:100B4200F8BB010DE58229F582E5833AF583E8F0E9
:100B5200225006E92582C8F622BBFE05E92582C895
:020B6200F2227D
:090B6400E6FB08E6FA08E6F922B6
:090B6D00EBF608EAF608E9F622AD
:090B7600E0FBA3E0FAA3E0F92280
:100B7F00F8E0FBA3A3E0F925F0F0E58215827002FF
:070B8F001583E0FA38F022A3
:090B9600EBF0A3EAF0A3E9F02260
:090B9F00E2FB08E2FA08E2F92287
:090BA800EBF208EAF208E9F2227E
:0C0BB100E493FB740193FA740293F922A0
:1016A900EFB40A07740D1216B4740A309811A89988
:1016B900B8130CC2983098FDA899C298B811F630A1
:0716C90099FDC299F5992279
:00000001FF
