:100068001200037F6112008EE4FFFEE4FDFC0DBD6B
:1000780000010CED64324C70F50FBF00010EEF6407
:06008800644E70E780DD0C
:030096008F902226
:10000300758920758DFD758BFD759850D2AFD2AC77
:03001300D28E2268
:08008E008F993099FDC29922FF
:03002300020026B2
:10002600C0E0C0F0C083C082C0D075D000C000C0A0
:1000360001C002C003C004C005C006C0072099075E
:10004600C298AF99120096D007D006D005D004D03A
:1000560003D002D001D000D0D0D082D083D0F0D04F
:02006600E03286
:03000000020016E5
:0C001600787FE4F6D8FD758109020068CF
:00000001FF
