:100FF200320A011E5A02320A01465A022832013CC2
:101002003202010203FF0FF2FF1004000000000091
:1010120000000000000000000000000000000000CE
:1010220000000000000000000000000000000000BE
:1010320000000000000000000000000000000000AE
:10104200000000000000000000000000000000009E
:10105200000000000000000000000000000000008E
:10106200000000000000000000000000000000007E
:10107200000000000000000000000000000000006E
:10108200000000000000000000000000000000005E
:10109200000000000000000000000000000000004E
:0210A20000123A
:05154300C109017B005D
:1014EB0075B8101215C53009FDE57B75F003A42402
:1014FB0007F582E43410F583E493FB740193FA74DB
:10150B000293F9E57B9010A393FD7C00120EECC2C5
:03151B000980D371
:10151E00EFC39441400BEFD3945A5005EF24BF8094
:10152E000FEFC39461400DEFD3947A5007EF249FD1
:05153E00F57BD209223B
:08000300438921D2AFD2A922EA
:101347008E228F23AB07AA06E4C39BFFE49AFE74A1
:10135700019400FDE49400FCE4FB7A01F9F812140F
:10136700248F79AE22AF23AB07AA06E4C39BFFE421
:101377009AFE74019400FDE49400FCE4FB7A01F901
:0F138700F8121424AF038F7A85798C857A8A2225
:0315CB00D28C229D
:0315CE00C28C22AA
:03000B000214AA32
:1014AA00C0E0C0F0C083C082C0D075D000C000C008
:1014BA0001C002C003C004C005C006C00785798CFC
:1014CA00857A8A1212F4D007D006D005D004D00348
:1014DA00D002D001D000D0D0D082D083D0F0D0E0DA
:0114EA0032CF
:100D62002D2D2D2D2D2D2D2D2D2D2D2D2D2D2D2DB1
:100D72002D2D2D2D2D2D2D2D53544152542D2D2DF4
:100D82002D2D2D2D2D2D2D2D2D2D2D2D2D2D2D2D91
:100D92002D2D2D2D2D0A0052756E3A202825642CFA
:100DA20020256429202D3E202825642C2025642915
:100DB200200A0050656E205374617475733A2025C1
:100DC200730A004E6F20416374696F6E00446F773F
:100DD2006E20416374696F6E0055702041637469BF
:100DE2006F6E00582044697374616E63653A202502
:100DF200646D6D200A00592044697374616E6365E5
:100E02003A2025646D6D200A00546F74616C204491
:100E1200697374616E63653A20252E33666D6D20A9
:100E22000A00546F74616C2054696D653A20256420
:100E32006D73200A00582053706565643A20252E90
:100E420033666D6D2F73200A0059205370656564F7
:100E52003A20252E33666D6D2F73200A00582052DA
:100E6200504D3A202564722F6D696E200A00592078
:100E720052504D3A202564722F6D696E200A005837
:100E82002052504D28616A7573746564293A202591
:100E920064722F6D696E200A00592052504D2861EC
:100EA2006A7573746564293A202564722F6D696EC0
:100EB200200A002D2D2D2D2D2D2D2D2D2D2D2D2DBD
:100EC2002D2D2D2D2D2D2D2D2D2D2D2D454E442D00
:100ED2002D2D2D2D2D2D2D2D2D2D2D2D2D2D2D2D40
:0A0EE2002D2D2D2D2D2D2D0A0A00B7
:0615C50012156802000E81
:100B9000C3EB9FF533EA9EF532C3E5309DF535E5AD
:100BA0002F9CF534FCAD35FEAF3512057DAA06ABA2
:100BB00007AC32AD33AE32AF3312057DEF2BFDEE15
:100BC0003AFC1201D11210A88F398E388D378C362D
:100BD000E4FFFE7D7A7C44AB39AA38A937A83612E7
:100BE000002612020AE41201CCE4FBFA79207841D3
:100BF00012012F12020A8E3A8F3BAF33AE3212151A
:100C0000A9AC06AD07EC1201D1E4FBFA797A78447D
:100C1000120026C004C005C006C007AC3AAD3BE4D4
:100C20001201D1A804A905AA06AB07D007D006D0A7
:100C300005D00412012F8F3F8E3E8D3D8C3CAF3589
:100C4000AE341215A9AC06AD07EC1201D1E4FBFAE3
:100C5000797A7844120026C004C005C006C007ACEB
:100C60003AAD3BE41201D1A804A905AA06AB07D00E
:100C700007D006D005D00412012F8F438E428D413C
:100C80008C40E4FFFE7D707C42AB3FAA3EA93DA8AC
:100C90003C120026E4FBFA79A0784012012F1202E0
:100CA0000A8E448F45E4FFFE7D707C42AB43AA422E
:100CB000A941A840120026E4FBFA79A0784012016D
:100CC0002F12020A8E468F47E5316009C2A97F10B4
:100CD0001215BDD2A9AC44AD45E41201D17BA27A74
:100CE0004579E2784012002612020AC006C007D3F6
:100CF000E5339400E5326480948040047D018002F5
:100D00007D00C005AC46AD47E41201D17BA27A4517
:100D100079E2784012002612020AAB07AA06C00246
:100D2000C003D3E5359400E5346480948040047FAB
:100D30000180027F008F4DAC3AAD3BE41201D17BC4
:100D4000337A337953784012012F12020A8F518E71
:100D5000508D4F8C4ED003D002D005D007D0060264
:020D600011DAA6
:0A0EEC008C258D268B228A23892491
:100EF600120525FB7A00C002C003AB22AA2390008C
:100F06000112053E752F00F530E4F531D003D0020D
:100F1600FDFCFFFE120B90E4F527F528E52624FCE0
:100F2600FFE52534FFFEC3E5289FE5279E5075ABF8
:100F360022AA23A92485288285278312053EFF7EBF
:100F460000E5282401FDE435278D82F58312053E50
:100F5600FD7C00E5282403F582E43527F583120598
:100F66003EFB7A00C002C003AB22AA23E528240474
:100F7600F582E43527F58312053E752F00F530E539
:100F8600282402F582E43527F58312053EF531D093
:100F960003D002120B9074032528F528E43527F5B3
:100FA60027020F22AB22AA23A924E52624FDFFE56A
:100FB6002534FF8F82F58312053EFF7E00E5262449
:100FC600FEFDE52534FF8D82F58312053EFD7C008E
:100FD600E4F52FF530E52624FFF582E52534FFF507
:0C0FE6008312053EF531E4FBFA020B908B
:0815B5008F7C1215BDAF7C22F2
:10000E00438920758DFD758BFD759850D2AFD2AC9E
:03001E00D28E225D
:0815BD008F993099FDC29922BB
:030023000214685C
:10146800C0E0C0F0C083C082C0D075D000C000C04A
:1014780001C002C003C004C005C006C00720990708
:10148800C298AF9912151ED007D006D005D004D047
:1014980003D002D001D000D0D0D082D083D0F0D0F9
:0214A800E03230
:1015480002080000020B00000211FFFF0213FFFF58
:0F155800040D000000000415FFFFFFFF010A0053
:101568001215D71215DAE4FF121585E4FF12159744
:0D1578001200037F327E001213470215CBD4
:10158500EF7003C29122BF0103D29122BF0202B2C2
:021595009122A1
:10159700EF7003C29422BF0103D29422BF0202B2AA
:0215A70094228C
:10124200EF4E6054AD07AC06E41201D1E4FBFA792B
:10125200B47843120026A804A905AA06AB077F00AA
:101262007EF07DD27C4712012F8F558E548D538C88
:1012720052E4FFFE7D7A7C44AB55AA54A953A8528E
:10128200120026E4F508F509FBFA794878421201C2
:081292002F12020A8E118F12C7
:01129A002231
:10129B00EF4E6054AD07AC06E41201D1E4FBFA79D2
:1012AB00B47843120026A804A905AA06AB077F0051
:1012BB007EF07DD27C4712012F8F558E548D538C2F
:1012CB0052E4FFFE7D7A7C44AB55AA54A953A85235
:1012DB00120026E4F50BF50CFBFA79487842120163
:0812EB002F12020A8E138F146A
:0112F30022D8
:0315D100D2902293
:0315D400D293228D
:0315D700C290229D
:0315DA00C2932297
:101396008D1BEF4E6040121242AF1B121585E4F50D
:1013A60010F50FF50EF50D7FE87E03FDFCAB1FAAC9
:1013B6001EA91DA81C12058FE47B32FAF9F8120645
:1013C6001A8F188E178D168C151215D1750A01E510
:0713D6000A70FC1215D7227A
:1013DD008D74EF4E604012129BAF74121597E4F5A9
:1013ED0010F50FF50EF50D7FE87E03FDFCAB78AA29
:1013FD0077A976A87512058FE47B32FAF9F81206F3
:10140D001A8F188E178D168C151215D4750A01E5C5
:07141D000A70FC1215DA222F
:1011DA008E488F498D4A8A4B8B4C121242AF4A1263
:1011EA001585AF4CAE4B12129BAF4D121597E4F515
:1011FA0010F50FF50EF50D7FE87E03FDFCAB51AA45
:10120A0050A94FA84E12058FE47B32FAF9F812065C
:10121A001A8F188E178D168C15E5494548600312EA
:10122A0015D1E54C454B60031215D4750A01E50A40
:08123A0070FC1215D70215DA51
:1012F4000509E509AE087002050814C39512EE95B8
:10130400114007B292E4F508F509050CE50CAE0BA3
:101314007002050B14C39514EE95134007B295E4BF
:10132400F50BF50C780D1206CBAB18AA17A916A865
:1013340015D31206BA500BE4F510F50FF50EF50DA2
:03134400F50A2285
:10002600EC4D6011E8497017ED33EC3304600DE4D4
:10003600FCFFFEFD22E933E8330470F80202761273
:10004600024158046009E4CC248150062850090274
:10005600028028400302027DC0E0EB4A7044B9806A
:1000660006D0E0FB02026CEF4E701CBD8008EBFF71
:10007600EAFEE9FD80EBE98DF0A4FEE5F002010F52
:10008600E9CDF9EAFEEBFFEF89F0A4FCE5F0CE89B5
:10009600F0A42EFFE435F0CD89F0A42DFEE435F072
:1000A6008067EF4E7005BD80D780C3EF8BF0A4ACA0
:1000B600F0EE8BF0A42CFCE435F0F8EF8AF0A42CDB
:1000C600E5F038FCE433CB8DF0A42CFCE5F03BF8EE
:1000D600EE8AF0A42CFCE5F038F8E433CF89F0A4DE
:1000E6002CFCE5F038CF3400CE89F0A42FFFE5F0E4
:1000F6003EFEE433C98DF0A42EFEE5F039CD8AF03C
:10010600A42FFFE5F03EFEE43DFD33D0E0FB5007B3
:100116000BBB000F020280EC2CFCEF33FFEE33FE2C
:06012600ED33FD0202585A
:10012C00020280EC5D046005E8590470030202765B
:10013C00120241580460F6EC4860F2EC7004FDFECB
:10014C00FF22C860DB2481C85009C39860025006A6
:10015C0002027D9850CAF582E9294B4A7005AB82A0
:10016C0002026C75F0007C1A7880C3EF9BEE9AED5E
:10017C0099400DC3EF9BFFEE9AFEED99FDE842F01E
:10018C00DC23ACF0D0E0FFD0E0FED0E0FDAB822071
:10019C00E7101BEB60BAEC2CFCEF33FFEE33FEEDFB
:1001AC0033FD020258E803F830E705C0F075F000A3
:1001BC00EF2FFFEE33FEED33FD40B830E7C280AADF
:1001CC0075F020800E75F010800575F0087D007EAE
:1001DC00007F003392D530D5031206ACEC334010BF
:1001EC00EF33FFEE33FEED33FDEC33FCD5F0ED22B7
:0E01FC00E5F0247EA2D513CC92E7CDCEFF22F3
:10020A00EDD2E7CD33EC3392D524814006E4FFFEEC
:10021A00FDFC22FCE4CFCECDCC24E0501174FF804B
:10022A00EDC3CC13CCCD13CDCE13CECF13CF0470E8
:07023A00F030D5DE0206AC36
:10072100E56D2459F8E6056D2278563007027859AF
:10073100E475F0011206EB0205252000EB7F2ED2B5
:10074100008018EF540F2490D43440D4FF30040BB0
:10075100EF24BFB41A0050032461FFE56E60021557
:100761006E0571E5717002057030070D7856E475FC
:10077100F0011206EBEF02056B0215B57403D20707
:100781008003E4C207F56D8B568A578958E4F56EEC
:10079100F570F571E56E60077F2012075C80F575D5
:1007A1006FFFC201C200C202C203C205C206C20873
:1007B10012072AFF700D3007057F0012076DAF7118
:1007C100AE7022B4255FC2D5C20412072AFF24D01D
:1007D100B40A00501A75F00A786E30D50508B6FFD4
:1007E1000106C6A426F620D5047002D20380D924BE
:1007F100CFB41A00EF5004C2E5D204020A5AD20162
:1008010080C6D20080C0D20280BCD2D580BAD205C7
:1008110080B47F2012075C2002077401B56E00408E
:10082100F1120721FF12075C020795D208D2068058
:1008310095120721FB120721FA120721F94A4B7081
:100841000679517A0B7BFF20022EE56E602A7E002D
:100851008E8275830012053E60060EEE656F70F0A4
:10086100C2D5EBC0E0EAC0E0E9C0E0EE120ABAD0BE
:10087100E0F9D0E0FAD0E0FB120525FF60AAEBC059
:10088100E0EAC0E0E9C0E012075CD0E02401F9D061
:10089100E03400FAD0E0FBE56F0460DCD56FD9806D
:1008A10087D20280A2120A9D60F7E56F70010412DF
:1008B1000383A96F600DE56F600914F56F120B4496
:1008C100EF60F3EA30E702F404C3995077EAF425C4
:1008D1006F0430E701E404F56F800D120A9D60C1D9
:1008E100EA056F256F120383EA786CF630E701E4BD
:1008F100256F04D56F0420050114120ABAE4C0E083
:10090100120B44786CE6601320E70714F6120744D3
:10091100802204F6D0E014C0E07F00120744E56FA6
:10092100600712073B156F800B30050312073BD0A0
:10093100E0020795D0E00480C5120A9D60A0E56F32
:1009410004120383786CEAF6E56F20050260010466
:050951002404120ABAA3
:1009560074FF04C0E0120B44120744E56F20050241
:10096600600312073BD0E0B56FE87F4512074E786B
:100976006CE67F2B30E7047F2DF404C0E012075CA1
:10098600D0E075F00A84C0F0120745D0E0120745A2
:10099600020795791080027908C206C2088008D23B
:1009A600D5790A8004790AC2D5E56F047002F56F1D
:1009B600E4FAFDFEFF120721FC7B08200113120753
:1009C60021FD7B1030000A120721FE120721FF7B52
:1009D60020EC3382D592D55013C3E43000069FFF36
:1009E600E49EFEE42001039DFDE49CFCE4CBF8C2FA
:1009F60001EC700CCFCECDCCE824F8F870F380175C
:100A0600C3EF33FFEE33FEED33FDEC33FCEB33FB8C
:100A1600994002FB0FD8E9EB300105F8D0E0C44855
:100A2600B201C0E00AEC4D4E4F78207B0070C2EA5E
:100A3600B56F0040BCC0E0120ABCD0F0D0E0200187
:100A460004C4C0E0C4B201C0F0120745D0F0D5F02E
:100A5600EB0207951206FB08325309995808034C16
:100A660007FF42099D4F09A54409A54908184309EE
:100A7600AB5508DC46093A4508A6470B71500807EE
:100A86002D080B2E082E2B080F23082C200B5A2A74
:100A960007C74800000826E56FB4FF03756F061206
:100AA6000721FC120721FD120721FE120721FF78FC
:100AB600650203B2790AA2D5200314300509B910DC
:100AC600020404B9080104A2D5200602500104203C
:100AD60002689202B56E005034C0E07F20300319E0
:100AE6007F30A20272067205500F120B13C202C2A9
:100AF60006C205C2087F30800F300503E9C0E01248
:100B0600075C300503D0E0F9D0E0B56ECC300517B0
:100B16007F30B9100C12075C7F583004077F78804D
:100B260003B9080312075C3002057F2D02075C7FBC
:100B3600202008F87F2B2006F322920280CF7F0028
:100B4600B4070050052465F8E6FF22286E756C6C24
:100B56002900D2011207213001F8C201786E30D582
:100B66000108F60207C72D504349581207212403EE
:100B7600B405004001E4900B6C9312074D743A12D1
:0A0B8600074DD203756E04020999B1
:1010A40002027622EDA2E7D2E7F9EC3340F260F3D4
:1010B400B4FF08ED547F70E8020280F82481C2E096
:1010C400C0E0F40428FAC313FCED92E7FD8C488DCC
:1010D400498E4A8F4BEEA2E7E9BA7F02C31334006C
:1010E4009400FA75F091A4E5F013F494FE8AF0A448
:1010F40033E5F033248CD313FDE492E7FE7F007CC8
:101104003F758302ECC0E0F8EDC0E0F9EEC0E0FA10
:10111400EFC0E0FBAC48AD49AE4AAF4B12012FD053
:10112400E0FBD0E0FAD0E0F9D0E0F8120292ED64EE
:1011340080FD30E7011CD583CBED33CC33F8D0E010
:0A114400A2E71328C313CC13FD2209
:10024100E9D2E7C933E833F892D5EDD2E7CD33EC03
:0702510033FC5002B2D5227C
:10025800EC30E7100FBF000C0EBE00080DBD000407
:100268000BEB6014A2D5EB13FCED92E7FD2274FFB3
:10027800FCFDFEFF22E480F8A2D574FF13FC7D800C
:03028800E480EF20
:10028B00020276E86480F8E933E83360110460F029
:10029B00ED33EC337009E8FCE9FDEAFEEBFF2204D9
:1002AB0060DED3EB9FEA9EE99DE8C2E78CF0C2F7D4
:1002BB0095F0400CE8CCF8E9CDF9EACEFAEBCFFBA0
:1002CB0012024185D0F05804700320D5B3E80470B6
:1002DB00075002B2D502028092D5EC0460F7E4CC51
:1002EB00C0E0C398F8603B94186008400DD0E0FB69
:1002FB00020258E4FBFAC9FC8028E830E406E4C9A2
:10030B00FBE4CAFCE830E305E4C9CACBFCE85407BC
:10031B006010F8C3E913F9EA13FAEB13FBEC13FCC7
:10032B00D8F130F52FC3E49CFCEF9BFFEE9AFEED6A
:10033B0099FDD0E0FBEF4E4D4C701222DB03020215
:10034B007DEC2CFCEF33FFEE33FEED33FDED30E7B0
:10035B00EB020258EF2BFFEE3AFEED39FDD0E0FB3E
:10036B0050130BBB0003020280ED13FDEE13FEEFE7
:08037B0013FFEC13FC02025811
:10038300F920E72824F950037907E4F42402FB1841
:10039300DBFDE624FB5014E9600DE4F618E604F6F1
:0F03A300B40A08E4F6D9F57401F60A22C2D5228D
:1003B200ED33EC3392D5FA602AB4FF33EDC2E77B1A
:1003C200FF60067A0379D7E4227A0379E020D50424
:1003D2007A0379DB224E614E002B494E46002D49AD
:1003E2004E4600E47A08F608DAFC7B00740722E83D
:1003F200C0E0ECC0E0EDC0E0EEC0E0EFC0E0EA75C6
:10040200F010A4CAABF075F04DA42BFBE435F0FC60
:10041200EA2410FAEB34C5FBEC34D9FCEDC2E7FF59
:1004220075F056A4F42411C5F0F434C58FF0A42A53
:10043200E5F03BE43CF620E7141204E5D0E0FFD0FF
:10044200E0FED0E0FDD0E0FC12012F8014F4041293
:1004520004E5D0E0FFD0E0FED0E0FDD0E0FC1200E9
:1004620026D0E0F8E6FAEDD2E7CD33EC332482FB76
:10047200E4C3CF33CFCE33CECD33CD33DBF37B07E3
:1004820075F00A846004F6081B0AE5F0F6088FF09E
:10049200740AA4FFACF08EF0740AA42CFEACF050E7
:1004A200010C8DF0740AA42CFDE435F0F608DBDEB5
:0304B200740722AA
:1004B5003F8000004120000042C80000447A00004F
:1004C500461C400047C35000497424004B189680D1
:1004D5004CBEBC205A0E1BCA6753C21C749DC5AEC8
:1004E500FB60065407601C2323120513EB54386088
:1004F500091204FF12050E120026ECF8EDF9EEFACA
:10050500EFCB22EB12050E80F1543803241C900426
:10051500B5FE93FC0EEE93FD0EEE930ECE93FF22E9
:0300000002114E9C
:0C114E00787FE4F6D8FD75817C021195D5
:10052500BB010689828A83E0225002E722BBFE02D4
:09053500E32289828A83E4932207
:10053E00BB010CE58229F582E5833AF583E0225072
:10054E0006E92582F8E622BBFE06E92582F8E222BC
:0D055E00E58229F582E5833AF583E49322D6
:10056B00BB010689828A83F0225002F722BBFE016F
:02057B00F32269
:10057D00EF8DF0A4A8F0CF8CF0A428CE8DF0A42E92
:02058D00FE224C
:10058F00E88FF0A4CC8BF0A42CFCE98EF0A42CFC0B
:10059F008AF0EDA42CFCEA8EF0A4CDA8F08BF0A489
:1005AF002DCC3825F0FDE98FF0A42CCD35F0FCEBE8
:1005BF008EF0A4FEA9F0EB8FF0A4CFC5F02ECD39AD
:0F05CF00FEE43CFCEAA42DCE35F0FDE43CFC221A
:1005DE0075F008758200EF2FFFEE33FECD33CDCCD4
:1005EE0033CCC58233C5829BED9AEC99E582984057
:1005FE000CF582EE9BFEED9AFDEC99FC0FD5F0D634
:10060E00E4CEFBE4CDFAE4CCF9A88222B800C1B95D
:10061E000059BA002DEC8BF084CFCECDFCE5F0CB9B
:10062E00F97818EF2FFFEE33FEED33FDEC33FCEBD4
:10063E0033FB10D703994004EB99FB0FD8E5E4F98F
:10064E00FA227818EF2FFFEE33FEED33FDEC33FC7C
:10065E00C933C910D7059BE99A4007EC9BFCE99A70
:10066E00F90FD8E0E4C9FAE4CCFB2275F010EF2FB5
:10067E00FFEE33FEED33FDCC33CCC833C810D707B5
:10068E009BEC9AE899400AED9BFDEC9AFCE899F8F0
:0E069E000FD5F0DAE4CDFBE4CCFAE4C8F92283
:10142400C2D5E830E70FB2D5E4C39BFBE49AFAE4F3
:1014340099F9E498F8EC30E717B2D512145A120669
:101444001AE4C39BFBE49AFAE499F9E498F880035C
:1014540012061A30D50DE4C39FFFE49EFEE49DFD01
:04146400E49CFC22E6
:0E06AC00C3E49FFFE49EFEE49DFDE49CFC225F
:1006BA00EB9FF5F0EA9E42F0E99D42F0E89C45F096
:0106CA00220D
:1006CB007401FF3395E0FEFDFC080808E6CF2FF61A
:1006DB0018E6CE3EF618E6CD3DF618E6CC3CF622F3
:1006EB00FAE6FB0808E6F925F0F618E6CA3AF62210
:1006FB00D083D082F8E4937012740193700DA3A38E
:10070B0093F8740193F5828883E4737402936860A1
:06071B00EFA3A3A380DFA1
:0C15A900EE30E707C3E49FFFE49EFE2243
:10115A000214EBE493A3F8E493A34003F68001F2AC
:10116A0008DFF48029E493A3F85407240CC8C33396
:10117A00C4540F4420C8834004F456800146F6DF65
:10118A00E4800B0102040810204080901543E47E9D
:10119A00019360BCA3FF543F30E509541FFEE4935A
:1011AA00A360010ECF54C025E060A840B8E493A321
:1011BA00FAE493A3F8E493A3C8C582C8CAC583CA4C
:1011CA00F0A3C8C582C8CAC583CADFE9DEE780BE04
:011567000083
:00000001FF
