:1005BE001205A07F0A7E0012035F7F0A7E001203DF
:0605CE00B312000380FEE1
:1005A000E4FF1205D4E4FF1205E61205F87F327E5F
:0E05B000001204077F507EC31204560206029A
:1005D400EF7003C29122BF0103D29122BF0202B283
:0205E400912262
:1005E600EF7003C29422BF0103D29422BF0202B26B
:0205F60094224D
:10035F00AD07AC06E41201C9E4FBFA79B478431295
:10036F00001EA804A905AA06AB077F007EF07DD268
:10037F007C471201278F178E168D158C14E4FFFE04
:10038F007D7A7C44AB17AA16A915A81412001E1269
:10039F000202E4F508F5097B32FAF9F81204A58E8A
:0303AF000C8F0DA3
:0103B2002228
:1003B300AD07AC06E41201C9E4FBFA79B478431241
:1003C300001EA804A905AA06AB077F007EF07DD214
:1003D3007C471201278F178E168D158C14E4FFFEB0
:1003E3007D7A7C44AB17AA16A915A81412001E1215
:1003F3000202E4F50AF50B7B32FAF9F81204A58E32
:030403000E8F0F4A
:0104060022D3
:03000300D2902276
:03000600D2932270
:10056B000509E509AE087002050814C3950DEE9553
:10057B000C4007B292E4F508F509050BE50BAE0A42
:10058B007002050A14C3950FEE950E4007B295E461
:05059B00F50AF50B223A
:0A05F800758911D2AFD2A9D2AB224F
:100407008E148F15AB07AA06E4C39BFFE49AFE740C
:10041700019400FDE49400FCE4FB7A01F9F812046E
:10042700A58F10AE14AF15AB07AA06E4C39BFFE474
:100437009AFE74019400FDE49400FCE4FB7A01F950
:0F044700F81204A5AF038F1285108C85128A223C
:100456008E148F15AB07AA06E4C39BFFE49AFE74BD
:10046600019400FDE49400FCE4FB7A01F9F812041F
:10047600A58F11AE14AF15AB07AA06E4C39BFFE424
:100486009AFE74019400FDE49400FCE4FB7A01F901
:0F049600F81204A5AF038F1385118D85138B22E8
:03060200D28C2275
:03060500D28E2270
:03060800C28C227F
:03060B00C28E227A
:03000B000204E903
:1004E900C0E0C0F0C083C082C0D075D000C000C0D9
:1004F90001C002C003C004C005C006C00785108C36
:1005090085128A12056BD007D006D005D004D00316
:10051900D002D001D000D0D0D082D083D0F0D0E0AA
:01052900329F
:03001B0002052AB1
:10052A00C0E0C0F0C083C082C0D075D000C000C097
:10053A0001C002C003C004C005C006C00785118DF2
:10054A0085138B120000D007D006D005D004D00343
:10055A00D002D001D000D0D0D082D083D0F0D0E069
:01056A00325E
:10001E00EC4D6011E8497017ED33EC3304600DE4DC
:10002E00FCFFFEFD22E933E8330470F802026E1283
:10003E00023958046009E4CC248150062850090284
:10004E000278284003020275C0E0EB4A7044B98082
:10005E0006D0E0FB020264EF4E701CBD8008EBFF81
:10006E00EAFEE9FD80EBE98DF0A4FEE5F002010762
:10007E00E9CDF9EAFEEBFFEF89F0A4FCE5F0CE89BD
:10008E00F0A42EFFE435F0CD89F0A42DFEE435F07A
:10009E008067EF4E7005BD80D780C3EF8BF0A4ACA8
:1000AE00F0EE8BF0A42CFCE435F0F8EF8AF0A42CE3
:1000BE00E5F038FCE433CB8DF0A42CFCE5F03BF8F6
:1000CE00EE8AF0A42CFCE5F038F8E433CF89F0A4E6
:1000DE002CFCE5F038CF3400CE89F0A42FFFE5F0EC
:1000EE003EFEE433C98DF0A42EFEE5F039CD8AF044
:1000FE00A42FFFE5F03EFEE43DFD33D0E0FB5007BC
:10010E000BBB000F020278EC2CFCEF33FFEE33FE3C
:06011E00ED33FD0202506A
:10012400020278EC5D046005E85904700302026E73
:10013400120239580460F6EC4860F2EC7004FDFEDB
:10014400FF22C860DB2481C85009C39860025006AE
:100154000202759850CAF582E9294B4A7005AB82B0
:1001640002026475F0007C1A7880C3EF9BEE9AED6E
:1001740099400DC3EF9BFFEE9AFEED99FDE842F026
:10018400DC23ACF0D0E0FFD0E0FED0E0FDAB822079
:10019400E7101BEB60BAEC2CFCEF33FFEE33FEED03
:1001A40033FD020250E803F830E705C0F075F000B3
:1001B400EF2FFFEE33FEED33FD40B830E7C280AAE7
:1001C40075F020800E75F010800575F0087D007EB6
:1001D400007F003392D530D503120283EC334010F4
:1001E400EF33FFEE33FEED33FDEC33FCD5F0ED22BF
:0E01F400E5F0247EA2D513CC92E7CDCEFF22FB
:10020200EDD2E7CD33EC3392D524814006E4FFFEF4
:10021200FDFC22FCE4CFCECDCC24E0501174FF8053
:10022200EDC3CC13CCCD13CDCE13CECF13CF0470F0
:07023200F030D5DE0202836B
:10023900E9D2E7C933E833F892D5EDD2E7CD33EC0B
:0702490033FC5002B2D52284
:10025000EC30E7100FBF000C0EBE00080DBD00040F
:100260000BEB6014A2D5EB13FCED92E7FD2274FFBB
:10027000FCFDFEFF22E480F8A2D574FF13FC7D8014
:03028000E480EF28
:0300000002000EED
:0C000E00787FE4F6D8FD7581170205BE6E
:1004A500C2D5E830E70FB2D5E4C39BFBE49AFAE482
:1004B50099F9E498F8EC30E717B2D51204DB12028B
:1004C500CDE4C39BFBE49AFAE499F9E498F8800338
:1004D5001202CD30D50DE4C39FFFE49EFEE49DFDE1
:0404E500E49CFC2275
:0E028300C3E49FFFE49EFEE49DFDE49CFC228C
:1002910075F008758200EF2FFFEE33FECD33CDCC24
:1002A10033CCC58233C5829BED9AEC99E5829840A7
:1002B1000CF582EE9BFEED9AFDEC99FC0FD5F0D684
:1002C100E4CEFBE4CDFAE4CCF9A88222B800C1B9AE
:1002D1000059BA002DEC8BF084CFCECDFCE5F0CBEC
:1002E100F97818EF2FFFEE33FEED33FDEC33FCEB25
:1002F10033FB10D703994004EB99FB0FD8E5E4F9E0
:10030100FA227818EF2FFFEE33FEED33FDEC33FCCC
:10031100C933C910D7059BE99A4007EC9BFCE99AC0
:10032100F90FD8E0E4C9FAE4CCFB2275F010EF2F05
:10033100FFEE33FEED33FDCC33CCC833C810D70705
:100341009BEC9AE899400AED9BFDEC9AFCE899F840
:0E0351000FD5F0DAE4CDFBE4CCFAE4C8F922D3
:00000001FF
