:0505470012000E80FE11
:1003CD00EF24FE600F1460111460132403701512D6
:1003DD000355800D120391800812028580031202CD
:0503ED00CC1200032208
:10000E00758920758DFD758BFD759850D2AFD2AC6C
:03001E00D28E225D
:080003008F993099FDC299228A
:03002300020313C2
:10031300C0E0C0F0C083C082C0D075D000C000C0B0
:1003230001C002C003C004C005C006C0072099076E
:10033300C298AF991203CDD007D006D005D004D010
:1003430003D002D001D000D0D0D082D083D0F0D05F
:02035300E03296
:10028500D2920000C2920000E4FBED25E0FDEC33C4
:10029500FCD29100C291003090034305010BBB10C5
:1002A500E9ED25E0FDEC33C4F854F0C868FCEDC475
:1002B500540F48FDAE047802CEC313CE13D8F924EB
:0602C500E8FFEE34FFFE2D
:0102CB002210
:1002CC00D2950000C2950000E4FBED25E0FDEC3377
:1002DC00FCD29400C294003093034305010BBB1075
:1002EC00E9ED25E0FDEC33C4F854F0C868FCEDC42E
:1002FC00540F48FDAE047802CEC313CE13D8F924A4
:06030C00E8FFEE34FFFEE5
:0103120022C8
:10051400438901758CFF758AEAD2AFD2A9D28C22A5
:0F052400C2A1D2A1C2A130A2FDD2A3AF90C2A3A7
:0105330022A5
:03000B0002053EAD
:09053E00758CFF758AEAB2A03247
:03054C0001280083
:04053400C2A07F01E1
:06053800000000DFFB22C1
:10043200D2A07F0A120538C2A07F78120538D2A056
:0D0442007F101205387F50120538D2A0221D
:10044F00D2A17F0A120538C2A17F78120538D2A136
:0D045F007F101205387F50120538D2A122FF
:1004BA00C2A0EF1392A07F0C120538D2A07F0502CA
:0204CA000538F3
:1004CC00C2A1EF1392A17F0C120538D2A17F0502B5
:0204DC000538E1
:0204DE00AE0767
:0F04E0007D08EE5401FF1204BAEEC313FEDDF3E4
:0104EF0022EA
:0204F000AE0755
:0F04F2007D08EE5401FF1204CCEEC313FEDDF3C0
:0105010022D7
:10050200120534D2A030A0027E017F0B120538AF53
:0105120006E2
:0105130022C5
:1004A400C2A17F01120538D2A130A1027E017F0BC7
:0504B400120538AF063F
:0104B9002220
:100489007D02120534D2A0EE25E0FE30A00343061A
:0A049900107F0B120538DDEAAF06F4
:0104A3002236
:100413007D02C2A17F01120538D2A1EE25E0FE3094
:0E042300A1034306107F0B120538DDE6AF067D
:0104310022A8
:10046C00E4FE7D08120534D2A0EEC313FE30A003C7
:0C047C004306807F0B120538DDEAAF0656
:010488002251
:1003F200E4FE7D08C2A17F01120538D2A1EEC3132B
:10040200FE30A1034306807F0B120538DDE6AF06FE
:0104120022C7
:100355001204327FCC1204DE7F441204DE12043212
:100365007FCC1204DE7FBE1204DE12046CAC0712D1
:10037500046CEFFEAD04EDFFAC06E4120131E4FBC5
:0B038500FA7980783D12002612016A10
:01039000224A
:1003910012044F7FCC1204F07F441204F012044F78
:1003A1007FCC1204F07FBE1204F01203F2AC0712EC
:1003B10003F2EFFEAD04EDFFAC06E4120131E4FB04
:0B03C100FA7980783D12002612016AD4
:0103CC00220E
:10002600EC4D6011E8497017ED33EC3304600DE4D4
:10003600FCFFFEFD22E933E8330470F80201D61214
:1000460001A158046009E4CC248150062850090215
:1000560001E02840030201DDC0E0EB4A7044B980AC
:1000660006D0E0FB0201CCEF4E701CBD8008EBFF12
:10007600EAFEE9FD80EBE98DF0A4FEE5F002010F52
:10008600E9CDF9EAFEEBFFEF89F0A4FCE5F0CE89B5
:10009600F0A42EFFE435F0CD89F0A42DFEE435F072
:1000A6008067EF4E7005BD80D780C3EF8BF0A4ACA0
:1000B600F0EE8BF0A42CFCE435F0F8EF8AF0A42CDB
:1000C600E5F038FCE433CB8DF0A42CFCE5F03BF8EE
:1000D600EE8AF0A42CFCE5F038F8E433CF89F0A4DE
:1000E6002CFCE5F038CF3400CE89F0A42FFFE5F0E4
:1000F6003EFEE433C98DF0A42EFEE5F039CD8AF03C
:10010600A42FFFE5F03EFEE43DFD33D0E0FB5007B3
:100116000BBB000F0201E0EC2CFCEF33FFEE33FECD
:06012600ED33FD0201B8FB
:10012C0075F020800E75F010800575F0087D007E4E
:10013C00007F003392D530D5031201EBEC33401025
:10014C00EF33FFEE33FEED33FDEC33FCD5F0ED2257
:0E015C00E5F0247EA2D513CC92E7CDCEFF2293
:10016A00EDD2E7CD33EC3392D524814006E4FFFE8D
:10017A00FDFC22FCE4CFCECDCC24E0501174FF80EC
:10018A00EDC3CC13CCCD13CDCE13CECF13CF047089
:07019A00F030D5DE0201EB9D
:1001A100E9D2E7C933E833F892D5EDD2E7CD33ECA4
:0701B10033FC5002B2D5221D
:1001B800EC30E7100FBF000C0EBE00080DBD0004A8
:1001C8000BEB6014A2D5EB13FCED92E7FD2274FF54
:1001D800FCFDFEFF22E480F8A2D574FF13FC7D80AD
:0301E800E480EFC1
:030000000201F901
:0C01F900787FE4F6D8FD75812C020240EE
:0E01EB00C3E49FFFE49EFEE49DFDE49CFC2225
:10020500020547E493A3F8E493A34003F68001F2C3
:1002150008DFF48029E493A3F85407240CC8C333FA
:10022500C4540F4420C8834004F456800146F6DFC9
:10023500E4800B010204081020408090054CE47E08
:10024500019360BCA3FF543F30E509541FFEE493BE
:10025500A360010ECF54C025E060A840B8E493A385
:10026500FAE493A3F8E493A3C8C582C8CAC583CAB0
:10027500F0A3C8C582C8CAC583CADFE9DEE780BE68
:01054F0000AB
:00000001FF
