:1002FE00BBB6D3ADCAB9D3C300D6B8CEC6D7D4B663
:10030E00AFB4E6B0FCB9F1A3A100B5B1C7B0BFD58B
:10031E00B9F1A3BA00BAC5C3C5D2D1B4F2BFAAA36C
:10032E00A100BBB6D3ADCAB9D3C3A3A100C4FAC34F
:10033E00BBD3D000B0B4CFC2CAD6D6B8C5B6A3A16F
:10034E0000C4FAD2D1BEADB4E6B0FCC1CBA3A100BD
:10035E00C4FAC3BBD3D0B4E6B0FCA3A100C7EBC8AC
:10036E00A1D7DFC4FAB5C4CEEFBCFEA3A100B5B1D0
:10037E00C7B0C3BBD3D0BFD5B9F100C7EBC9D4D773
:10038E00F7B5C8BAF2A3A100B4E6B0FC00C7EBB74C
:10039E00C5C8EBC4FAB5C4CAD6D6B800C8A1B0FC5D
:0103AE00004E
:100AB400E4FDFCC3ED9FEC9E5015E4FBFA0BBB0078
:0F0AC400010AEB646E4A70F50DBD00010C80E471
:010AD3002200
:0D0C1A007F7F7EEB7D20DDFEDEFADFF60041
:010C270022AA
:100A8F001208A3120C4412086420A00612076D303E
:100A9F00A0FD20A1061208DC30A1FD20A2EBD2A3FD
:050AAF0020A2E680FB1F
:0F070C00E4F50EFF12054F8B0B8A0C890DE4FFED
:10071B00E50EC39414504AE4F50FE50EC394145040
:10072B003CAB0BAA0CA90D8F827583001201123002
:10073B00E0097488250EF8760180077488250EF879
:10074B00E4F6AB0BE50D2FF9E4350CFA1200F9C307
:0D075B001312013F050E050FE50FB408BD98
:040768000FBF20AFF0
:01076C00226A
:100B790012070CE4FF74882FF8E67002050A0FBF0C
:040B890014F3AF0AA8
:010B8D002245
:100BFB00120C28EF60097F327E00120AB480F122BA
:100B8E0012070CE4FF74882FF8E67001220FBF14D1
:030B9E00F47F00E1
:010BA1002231
:010C7F002252
:100864007F0A7E00120AB4120C5D7BFF7A0279FEC5
:100874007D037F0112090B7BFF7A0379077D017FDA
:100884000212090B7BFF7A0379187D027F04120997
:0F0894000B120B79EFFB7A007D077F040201DE68
:10063800120B8E8F097E0012081A8F08120C5DE5C6
:10064800087028C2A3E5092401FBE433FA7D027F80
:10065800021201DE7BFF7A0379237D037F021209F0
:100668000B7BFF7A0379307D03801AE508B4021901
:100678007BFF7A03793B7D037F0212090B7BFF7AAC
:100688000379427D027F03800FE508B4240D7BFFC8
:100698007A03794F7D027F0212090B120C1A0208A5
:0106A80064ED
:1006A9007D137C00E4FFFE1203AF8E088F09120C44
:1006B9005DE509B4FF14E508B4FF0F7BFF7A037900
:1006C9005E7D027F0212090B8033C2A3E509240172
:1006D900FBE43508FA7D027F021201DE7BFF7A0313
:1006E90079237D037F0212090B7BFF7A03796B7DE6
:1006F900017F0312090BAF09AE08120C67120C1A1D
:030709000208647F
:10076D00120B79EFD394005023120C5D7BFF7A03AB
:10077D00797C7D027F0212090B7BFF7A0379897DDB
:10078D00037F0312090B120C1A020864120C5D7B15
:10079D00FF7A0379967D047F0112090B7BFF7A03A3
:1007AD00799B7D017F0312090B750B2E7B2E7D0826
:0C07BD007F03120995120BFB1206382274
:1008DC00120C5D7BFF7A0379AA7D047F0112090B50
:1008EC007BFF7A03799B7D017F0312090B750B2E1D
:0F08FC007B2E7D087F03120995120BFB0206A9C4
:10044B00EF01FFFFFFFF01000301000501000402A4
:10045B00010008080100030500090100031D00212C
:10046B000100030D00110100035000540100035162
:10047B0000550100035300570100070C000000005A
:10048B0000000100085436020000000000010008C3
:10049B0055360000000000000000000000010004C1
:1004AB001F00000000000000000000000000000022
:1004BB000000000000000000000000000000000031
:0904CB0000000000000000000028
:100AD400E4FDFCC3ED9FEC9E5015E4FBFA0BBB0058
:0F0AE400010AEB646E4A70F50DBD00010C80E451
:010AF30022E0
:0605C5008B248A25892623
:1005CB00E4FFAB24AA25A9268F82758300120112A2
:1005DB00FEEF90044B936E6002C3220FBF06E3AB9A
:1005EB0024AA25A926900007120112FF90000612DB
:1005FB0001122FFFE433FE9000081201127C002F32
:10060B00FFEC3EFE9000091201122FF528EC3EF58F
:10061B002790000A120112FE90000B120112FFE547
:0C062B00286F7003E5276E6002C322D325
:0106370022A0
:100B4B00E4F520E52090044B93FF120C6F0520E594
:060B5B0020C3940640EDEA
:010B61002271
:04093A007BFF7D06BC
:08093E008B208A2189228D2300
:10094600E4F524E524C395235017AB20AA21A92258
:10095600852482758300120112FF120C6F05248014
:01096600E2AE
:01096700226D
:0809C1008B248A2589268D276D
:1009C900E4F528E528C395275017120C77AB24AA1C
:1009D90025A926852882758300EF120151052880F3
:0109E900E22B
:0109EA0022EA
:100B2F007B007A0079187D0C1209C17B007A00795D
:0B0B3F00181205C540037F0122AF2102
:010B4A002288
:0807C9008E0A8F0B8C0C8D0DC4
:1007D100780E7C007D007BFF7A0479837E007F0A9E
:1007E1001200D3E50AF512850B13E50CF514850DFE
:1007F10015E50B2414FFE4350AFEE50D2FFFE50C8A
:100801003EAD07F5168D17120B4B7B007A00790E62
:080811007D0A12093E120B2FB3
:0108190022BC
:0D0C4400120C0B7FF47E01120AD4020BC6C5
:0E0C2800120B4B7A04795112093A120B2F224B
:1009EB00EF24FE600E04701B120B4B7BFF7A047915
:1009FB00578009120B4B7BFF7A04795E7D07120936
:0A0A0B003E80037F0122120B2F2210
:0E0C3600120B4B7A04795F12093A120B2F222F
:04081A008E0A8F0BA8
:10081E00780C7C007D007BFF7A04798D7E007F0B47
:10082E001200D3E50AF512850B13E50B2495FFE4B0
:10083E00350AAD07F5158D16120B4B7B007A007934
:10084E000C7D0B12093E120B2F8F17E517B45603B2
:05085E00020B2FAF1793
:010863002272
:100A3F00120B4B7BFF7A0479657D0612093E7B0012
:100A4F007A0079297D0E1209C1E5327008AF33EFB4
:080A5F00FEE534FF22E4FEFF76
:010A6700226C
:100BA200120B4B7BFF7A04796B7D0612093E120B06
:020BB2002F22F0
:080C67007D017C001207C92287
:0803AF008E0A8F0B8C0C8D0DE2
:1003B700780E7C007D007BFF7A0479987E007F10A1
:1003C7001200D3E50AF513850B14E50CF515850D19
:1003D70016E50B2494FFE4350AFEE50D2FF51FE51E
:1003E7000C3EF51EF517851F18120B4B7B007A0084
:1003F700790E7D0B12093E7B007A00790E7D101273
:1004070009C1E5177039F51EF51FF51E851A1FE599
:100417001F751F00F51EE51B421FD3E51F9400E55E
:100427001E9400401AE4F51EF51FF51E85181FE5FA
:100437001F751F00F51EE519421FAE1EAF1F227E56
:03044700FF7FFF35
:01044A00228F
:02054F008F100B
:10055100783A7C007D007BFF7A0479A87E007F2CAD
:100561001200D3783EA610E51024247887F6E433F0
:1005710018F6E6FC08E6FDEC783FF6AF0508A6079D
:10058100120B4B7B007A00793A7D0712093E7B0002
:0E0591007A00793A7D2C1209C17843E6701F7A
:10059F00F51175120A743A2512F8E6FFAE1105111E
:0F05AF0074662EF8A6070512E512B42AE880003C
:0605BE007B007A00796663
:0105C4002214
:100BB400120B4B7BFF7A0479717D0612093E120BEE
:020BC4002F22DE
:100BC600120B4B7BFF7A0479777D0612093E120BD6
:020BD6002F22CC
:100BD800120B4B7BFF7A04797D7D0612093E120BBE
:020BE8002F22BA
:0D0AF400C2A6C2A57F01120B018C80D2A505
:100B0100E4FEEEC39F5009E4FD0DBD0AFC0E80F228
:010B110022C1
:100B62007580FFC2A7D2A6D2A5E4FFE58030E704D4
:060B72000FBF0AF7C2A547
:010B7800225A
:100A68007E80BF0106ED247FFE8019BF0206ED24BB
:100A78008FFE8010BF0306ED2487FE8007BF0404A5
:060A8800ED2497FEAF060D
:010A8E002245
:1008A300C2A47F64120B01D2A4D2A0120B017F3029
:1008B300120BF17F01120B017F30120BF17F01123A
:1008C3000B017F0C120BF17F01120B01120BF17F55
:0908D30001120B017F06020BF17A
:070BEA007F34120BF17F3490
:0A0BF100AC07C2A7120AF4C2A52245
:100968002430FF12098BE50C04FF120BF17D0AAE4F
:100978000AAF0B7C001201737C007D0A120173ED33
:030988002430FF19
:0A098B00AC07D2A7120AF4C2A5229D
:100B1200120B62D2A7D2A6C2A57F01120B01D2A5E7
:0C0B2200120B01AC80C2A5120B01AF0445
:010B2E0022A4
:0404D400AB07AA05C3
:1004D800120BEAEA541F2480F539EAD3941FEBC4BF
:1004E800540F40052488F980032480F9EB540FFF4A
:1004F800E47E80A807088005CEC313CE13D8F9F58B
:10050800388E37AF39120BF1AF01120BF1120B1203
:10051800120B12AB07EB7B00FA120B12EFFBEB424C
:1005280038EA4237E537FBAA38AF39120BF1AF0189
:10053800120BF1AF0312098BAF0212098B7F36122F
:070548000BF17F30020BF103
:100A1500120BEAE4FBEB2480FF120BF17F80120B33
:100A2500F1E4FAE4FF12098B0ABA20F70BBB20E5C3
:0A0A35007F36120BF17F30020BF147
:10099500AA07A9057F30120BF1AF02AD01120A6853
:1009A500120BF1EB70047F208002AF0312098BE577
:0C09B5000B70047F208002AF0B02098B46
:10090B00EFC394014028ED94014023EFD39404509E
:10091B001DED94085018120A68120BF11200F9FF22
:0E092B00600C12098B740129F9E43AFA80EE8F
:01093900229B
:0401DE008A0A8B0BF3
:1001E200120A688F0C7F30120BF1AF0C120BF1D395
:1001F200E50B9409E50A9400500A7F2012098BE569
:100202000B0202F7D3E50B9463E50A94005021AE8A
:100212000AAF0B7C007D0A120173EF2430FF120932
:100222008BAE0AAF0B7C007D0A120173ED0202F75E
:10023200D3E50B94E7E50A940350237F2012098B40
:10024200AE0AAF0B7C007D64120173EF120968AE37
:100252000AAF0B7C007D0A120173ED0202F7D3E5AF
:100262000B940FE50A94275037AE0AAF0B7C037D3F
:10027200E8120173EF2430FF12098BAE0AAF0B7C38
:10028200007D641201737C007D0A120173ED120974
:1002920068AE0AAF0B7C007D0A120173ED0202F711
:1002A200AE0AAF0BE4FCFD7B9F7A867901F8C3129C
:1002B20001C840477F2012098BAE0AAF0B7C277D15
:1002C20010120173EF2430FF12098BE50C04FF12A8
:1002D2000BF1AE0AAF0B7C037DE812097D7D64123F
:1002E2000977E50C2402120971AE0AAF0B7C007D7E
:0B02F2000A120173ED2430FF12098B8B
:0102FD0022DE
:0A0C5D007F01120BF17F32020B0140
:0F0C0B00438920758DFD758BFD759850D28E2213
:080C6F008F993099FDC2992212
:080C77003098FDC298AF9922EC
:03000000020C519E
:0C0C5100787FE4F6D8FD75819B020A8FC5
:10000300E709F608DFFA8046E709F208DFFA803EDF
:1000130088828C83E709F0A3DFFA8032E309F608CC
:10002300DFFA8078E309F208DFFA807088828C8334
:10003300E309F0A3DFFA806489828A83E0A3F608E8
:10004300DFFA805889828A83E0A3F208DFFA804CC2
:1000530080D280FA80C680D4806980F28033801099
:1000630080A680EA809A80A880DA80E280CA803302
:1000730089828A83ECFAE493A3C8C582C8CCC5837A
:10008300CCF0A3C8C582C8CCC583CCDFE9DEE7804A
:100093000D89828A83E493A3F608DFF9ECFAA9F0C9
:1000A300EDFB2289828A83ECFAE0A3C8C582C8CC1F
:1000B300C583CCF0A3C8C582C8CCC583CCDFEADE38
:1000C300E880DB89828A83E493A3F208DFF980CC9A
:1000D30088F0EF60010E4E60C388F0ED2402B40493
:1000E3000050B9F582EB2402B4040050AF2323453A
:0600F3008223900053730C
:1000F900BB010689828A83E0225002E722BBFE0205
:09010900E32289828A83E4932237
:10011200BB010CE58229F582E5833AF583E02250A2
:1001220006E92582F8E622BBFE06E92582F8E222EC
:0D013200E58229F582E5833AF583E4932206
:10013F00BB010689828A83F0225002F722BBFE019F
:02014F00F32299
:10015100F8BB010DE58229F582E5833AF583E8F0E4
:10016100225006E92582C8F622BBFE05E92582C890
:02017100F22278
:10017300BC000BBE0029EF8DF084FFADF022E4CC70
:10018300F875F008EF2FFFEE33FEEC33FCEE9DEC39
:10019300984005FCEE9DFE0FD5F0E9E4CEFD22ED7F
:1001A300F8F5F0EE8420D21CFEADF075F008EF2FC9
:1001B300FFED33FD4007985006D5F0F222C398FDBA
:0501C3000FD5F0EA2257
:1001C800EB9FF5F0EA9E42F0E99D42F0EC6480C8AE
:0601D80064809845F0224E
:00000001FF
