:100DEB002564005761726E696E673A200053657413
:100DFB0074696E672E2E0054313A200054323A201B
:0B0E0B000054333A200054343A200019
:06109600010A10010EFF2B
:100D870012104612109DE50AB410FB120C573012D0
:100D970005120A30C212E508D3950E5012E50995DF
:100DA7000E500CE50B950E5006E50D950E4004C24E
:070DB700B780D3D2B780CF53
:100C5700120C97EF650860048F08D2127F0A120EF4
:100C670066120CD3EF650960048F09D2127F0A124E
:100C77000E66120D0FEF650B60048F0BD2127F0A01
:0F0C8700120E66120D4BEF650D60048F0DD21229
:010C9600223B
:0C1077007FBD7EE67D21DDFEDEFADFF6A7
:01108300224A
:080AFB008F23E50A6411703C31
:100B030085230E755AFF755B0D755CEBF55D850EE0
:100B13005EFB7A00792412061D7BFF7A0D79EE7D48
:100B2300017F02120DBE7B007A0079247D0A7F02C9
:0C0B3300120DBE121077D212750A1022AB
:100B3F00E523B40107750A10AF088022E523B4023C
:100B4F0007750A10AF098016E523B40307750A105D
:100B5F00AF0B800AE523B40408750A10AF0D02101D
:100B6F008EE523B41013750A111210A37BFF7A0DB3
:0A0B7F0079F87D017F01120DBE22FE
:100E6600E4FDFCEFFBC3ED9B7480F86C985015E431
:100E7600FBFA0BBB00010AEB646E4A70F50DBD0070
:040E8600010C80DFFC
:010E8A002245
:100A30001210A37BFF7A0E79027D017F01120DBE99
:100A40007BFF7A0E79077D087F01120DBE7BFF7A4E
:100A50000E790C7D017F02120DBE7BFF7A0E79119B
:100A60007D087F02120DBE755AFF755B0D755CEB3C
:100A7000755D0085085E7B007A00794312061D755E
:100A80005AFF755B0D755CEB755D0085095E7B003B
:100A90007A00794812061D755AFF755B0D755CEB7F
:100AA000755D00850B5E7B007A00794D12061D7521
:100AB0005AFF755B0D755CEB755D00850D5E7B0007
:100AC0007A00795212061D7B007A0079437D047FFB
:100AD00001120DBE7B007A0079487D0B7F01120D5B
:100AE000BE7B007A00794D7D047F02120DBE7B0033
:0B0AF0007A0079527D0B7F02020DBEE0
:0410840033FE7F5068
:06108800000000DFFB2266
:100E8B00D2A07F0A121088C2A07F78121088D2A03D
:100E9B007F10121088A2A0E433FE7F50121088D26C
:030EAB00A0F5802F
:010EAE002221
:100EF400E4FED2A17F0A121088C2A17F7812108862
:100F0400D2A17F10121088A2A1121084D2A1F58060
:010F140022BA
:100F1500E4FED2A27F0A121088C2A27F781210883E
:100F2500D2A27F10121088A2A2121084D2A2F5803C
:010F35002299
:100F3600E4FED2A37F0A121088C2A37F781210881B
:100F4600D2A37F10121088A2A3121084D2A3F58018
:010F56002278
:02000300AE0746
:100005007D08C2A0EE1392A07F0C121088D2A07FAB
:0A00150005121088EEC313FEDDE8AB
:01001F0022BE
:020FDB00AE075F
:100FDD007D08C2A1EE1392A17F0C121088D2A17FC1
:0A0FED0005121088EEC313FEDDE8C4
:010FF70022D7
:020FF800AE0742
:100FFA007D08C2A2EE1392A27F0C121088D2A27FA1
:0A100A0005121088EEC313FEDDE8A6
:0110140022B9
:02101500AE0724
:101017007D08C2A3EE1392A37F0C121088D2A37F80
:0A10270005121088EEC313FEDDE889
:01103100229C
:100F5700E4FE7D08C2A07F01121088D2A0EEC31361
:100F6700FE30A0034306807F0B121088DDE6AF0634
:010F77002257
:100F7800E4FE7D08C2A17F01121088D2A1EEC3133E
:100F8800FE30A1034306807F0B121088DDE6AF0612
:010F98002236
:100F9900E4FE7D08C2A27F01121088D2A2EEC3131B
:100FA900FE30A2034306807F0B121088DDE6AF06F0
:010FB9002215
:100FBA00E4FE7D08C2A37F01121088D2A3EEC313F8
:100FCA00FE30A3034306807F0B121088DDE6AF06CE
:010FDA0022F4
:100C9700120E8B7FCC1200037F44120003120E8BBF
:100CA7007FCC1200037FBE120003120F57AC07124E
:100CB7000F57EFFEAD04EDFFAC06E4120131E4FB84
:0B0CC700FA7980783D12002612016AC5
:010CD20022FF
:100CD300120EF47FCC120FDB7F44120FDB120EF4E3
:100CE3007FCC120FDB7FBE120FDB120F78AC071223
:100CF3000F78EFFEAD04EDFFAC06E4120131E4FB27
:0B0D0300FA7980783D12002612016A88
:010D0E0022C2
:100D0F00120F157FCC120FF87F44120FF8120F1528
:100D1F007FCC120FF87FBE120FF8120F99AC07128B
:100D2F000F99EFFEAD04EDFFAC06E4120131E4FBC9
:0B0D3F00FA7980783D12002612016A4C
:010D4A002286
:100D4B00120F367FCC1210157F44121015120F366E
:100D5B007FCC1210157FBE121015120FBAAC0712F2
:100D6B000FBAEFFEAD04EDFFAC06E4120131E4FB6C
:0B0D7B00FA7980783D12002612016A10
:010D8600224A
:10104600758920758DFD758BFD759850D2AFD2AC24
:03105600D28E2215
:08108E008F993099FDC29922EF
:03002300020C15B7
:100C1500C0E0C0F0C083C082C0D075D000C000C0A5
:100C250001C002C003C004C005C006C00720990763
:100C3500C298AF99120AFBD007D006D005D004D0D0
:100C450003D002D001D000D0D0D082D083D0F0D054
:020C5500E0328B
:100ED2007F01120EE3C2A5120EE38C80120EE3D242
:010EE200A669
:100EE300E4FEEEC39F5009E4FD0DBD32FC0E80F21B
:010EF30022DC
:10103200C2A4D2A5C2A67580FFD2A6AF80C2A6EF77
:0410420020E7F3228E
:100E16008F438D447F38121059E543B4010E7F0E7F
:100E2600121059E544B401097F0F80027F0C12109D
:090E3600597F061210590210A3A5
:06109D00E4FDFF020E1647
:0510A3007F010210595D
:100EAF008B5CEF601DD394025018ED6015941050B9
:100EBF0011EF75F040A42D243FFF121059AF5C12B3
:030ECF0010682286
:100DBE008F578D588B598A5A895BAB59AA5AA95BA2
:100DCE00120525FB6016AD580558AF57120EAF74BD
:0D0DDE0001255BF55BE4355AF55A80DE22F5
:0F105900AC07121032C2A6C2A4120ED2C2A62237
:0F106800AC07121032C2A6D2A4120ED2C2A62218
:10002600EC4D6011E8497017ED33EC3304600DE4D4
:10003600FCFFFEFD22E933E8330470F80201D61214
:1000460001A158046009E4CC248150062850090215
:1000560001E02840030201DDC0E0EB4A7044B980AC
:1000660006D0E0FB0201CCEF4E701CBD8008EBFF12
:10007600EAFEE9FD80EBE98DF0A4FEE5F002010F52
:10008600E9CDF9EAFEEBFFEF89F0A4FCE5F0CE89B5
:10009600F0A42EFFE435F0CD89F0A42DFEE435F072
:1000A6008067EF4E7005BD80D780C3EF8BF0A4ACA0
:1000B600F0EE8BF0A42CFCE435F0F8EF8AF0A42CDB
:1000C600E5F038FCE433CB8DF0A42CFCE5F03BF8EE
:1000D600EE8AF0A42CFCE5F038F8E433CF89F0A4DE
:1000E6002CFCE5F038CF3400CE89F0A42FFFE5F0E4
:1000F6003EFEE433C98DF0A42EFEE5F039CD8AF03C
:10010600A42FFFE5F03EFEE43DFD33D0E0FB5007B3
:100116000BBB000F0201E0EC2CFCEF33FFEE33FECD
:06012600ED33FD0201B8FB
:10012C0075F020800E75F010800575F0087D007E4E
:10013C00007F003392D530D50312057DEC3340108F
:10014C00EF33FFEE33FEED33FDEC33FCD5F0ED2257
:0E015C00E5F0247EA2D513CC92E7CDCEFF2293
:10016A00EDD2E7CD33EC3392D524814006E4FFFE8D
:10017A00FDFC22FCE4CFCECDCC24E0501174FF80EC
:10018A00EDC3CC13CCCD13CDCE13CECF13CF047089
:07019A00F030D5DE02057D07
:1005C100E56E245AF8E6056E227857301002785A03
:1005D100E475F00112058B0205252009EB7F2ED26F
:1005E100098018EF540F2490D43440D4FF300D0B00
:1005F100EF24BFB41A0050032461FFE56F600215B8
:100601006F0572E5727002057130100D7857E4754F
:10061100F00112058BEF02056B020E3F7403D2103D
:100621008003E4C210F56E8B578A588959E4F56F3F
:10063100F571F572E56F60077F201205FC80F57595
:1006410070FFC20AC209C20BC20CC20EC20FC21194
:100651001205CAFF700D3010057F0012060DAF7232
:10066100AE7122B4255FC2D5C20D1205CAFF24D0D6
:10067100B40A00501A75F00A786F30D50508B6FF34
:100681000106C6A426F620D5047002D20C80D92416
:10069100CFB41A00EF5004C2E5D20D0208FAD20A13
:1006A10080C6D20980C0D20B80BCD2D580BAD20E0E
:1006B10080B47F201205FC200B077401B56F004048
:1006C100F11205C1FF1205FC020635D211D20F80CD
:1006D100951205C1FB1205C1FA1205C1F94A4B7009
:1006E1000679F17A097BFF200B2EE56F602A7E00E7
:1006F1008E8275830012053E60060EEE657070F005
:10070100C2D5EBC0E0EAC0E0E9C0E0EE12095AD080
:10071100E0F9D0E0FAD0E0FB120525FF60AAEBC0BA
:10072100E0EAC0E0E9C0E01205FCD0E02401F9D024
:10073100E03400FAD0E0FBE5700460DCD570D980CC
:1007410087D20B80A212093D60F7E5707001041297
:1007510001EBA970600DE570600914F5701209E4F0
:10076100EF60F3EA30E702F404C3995077EAF42525
:10077100700430E701E404F570800D12093D60C199
:10078100EA057025701201EBEA786DF630E701E4B5
:10079100257004D57004200E011412095AE4C0E03A
:1007A1001209E4786DE6601320E70714F61205E4F8
:1007B100802204F6D0E014C0E07F001205E4E57069
:1007C10060071205DB1570800B300E031205DBD0BC
:1007D100E0020635D0E00480C512093D60A0E57055
:1007E100041201EB786DEAF6E570200E0260010457
:0507F100240412095A66
:1007F60074FF04C0E01209E41205E4E570200E025D
:1008060060031205DBD0E0B570E87F451205EE788F
:100816006DE67F2B30E7047F2DF404C0E01205FC63
:10082600D0E075F00A84C0F01205E5D0E01205E5C7
:10083600020635791080027908C20FC2118008D2EB
:10084600D5790A8004790AC2D5E570047002F5707C
:10085600E4FAFDFEFF1205C1FC7B08200A1312050F
:10086600C1FD7B1030090A1205C1FE1205C1FF7BCE
:1008760020EC3382D592D55013C3E43009069FFF8E
:10088600E49EFEE4200A039DFDE49CFCE4CBF8C252
:100896000AEC700CCFCECDCCE824F8F870F38017B4
:1008A600C3EF33FFEE33FEED33FDEC33FCEB33FBEE
:1008B600994002FB0FD8E9EB300A05F8D0E0C448AE
:1008C600B20AC0E00AEC4D4E4F78207B0070C2EAB7
:1008D600B5700040BCC0E012095CD0F0D0E0200A40
:1008E60004C4C0E0C4B20AC0F01205E5D0F0D5F0E9
:1008F600EB02063512059B06D25308395806A34C5F
:10090600069F42083D4F08454408454906B8430836
:100916004B55077C4607DA450746470A115006A796
:100926002D06AB2E06CE2B06AF2306CC2009FA2ABF
:10093600066748000006C6E570B4FF037570061228
:1009460005C1FC1205C1FD1205C1FE1205C1FF78E5
:100956006602021A790AA2D5200C14300E09B910C3
:10096600020404B9080104A2D5200F025001042094
:100976000B68920BB56F005034C0E07F20300C1925
:100986007F30A20B720F720E500F1209B3C20BC248
:100996000FC20EC2117F30800F300E03E9C0E01285
:1009A60005FC300E03D0E0F9D0E0B56FCC300E1761
:1009B6007F30B9100C1205FC7F58300D077F788008
:1009C60003B908031205FC300B057F2D0205FC7FD9
:1009D600202011F87F2B200FF322920B80CF7F006F
:1009E600B4070050052466F8E6FF22286E756C6C85
:1009F6002900D20A1205C1300AF8C20A786F30D52A
:100A06000108F60206672D504349581205C1240312
:100A1600B405004001E4900A0C931205ED743A12F5
:0A0A260005EDD20C756F04020839CB
:1001A100E9D2E7C933E833F892D5EDD2E7CD33ECA4
:0701B10033FC5002B2D5221D
:1001B800EC30E7100FBF000C0EBE00080DBD0004A8
:1001C8000BEB6014A2D5EB13FCED92E7FD2274FF54
:1001D800FCFDFEFF22E480F8A2D574FF13FC7D80AD
:0301E800E480EFC1
:1001EB00F920E72824F950037907E4F42402FB18DB
:1001FB00DBFDE624FB5014E9600DE4F618E604F68B
:0F020B00B40A08E4F6D9F57401F60A22C2D52226
:10021A00ED33EC3392D5FA602AB4FF33EDC2E77BB3
:10022A00FF60067A02793FE4227A02794820D504EF
:10023A007A027943224E614E002B494E46002D49DF
:10024A004E4600E47A08F608DAFC7B00740722E8D6
:10025A00C0E0ECC0E0EDC0E0EEC0E0EFC0E0EA755F
:10026A00F010A4CAABF075F04DA42BFBE435F0FCFA
:10027A00EA2410FAEB34C5FBEC34D9FCEDC2E7FFF3
:10028A0075F056A4F42411C5F0F434C58FF0A42AED
:10029A00E5F03BE43CF620E7141204E5D0E0FFD099
:1002AA00E0FED0E0FDD0E0FC1204188014F4041241
:1002BA0004E5D0E0FFD0E0FED0E0FDD0E0FC120083
:1002CA0026D0E0F8E6FAEDD2E7CD33EC332482FB10
:1002DA00E4C3CF33CFCE33CECD33CD33DBF37B077D
:1002EA0075F00A846004F6081B0AE5F0F6088FF038
:1002FA00740AA4FFACF08EF0740AA42CFEACF05081
:10030A00010C8DF0740AA42CFDE435F0F608DBDE4E
:03031A0074072243
:10031D000201D6E86480F8E933E83360110460F037
:10032D00ED33EC337009E8FCE9FDEAFEEBFF220446
:10033D0060DED3EB9FEA9EE99DE8C2E78CF0C2F741
:10034D0095F0400CE8CCF8E9CDF9EACEFAEBCFFB0D
:10035D001201A185D0F05804700320D5B3E80470C4
:10036D00075002B2D50201E092D5EC0460F7E4CC5F
:10037D00C0E0C398F8603B94186008400DD0E0FBD6
:10038D000201B8E4FBFAC9FC8028E830E406E4C9B0
:10039D00FBE4CAFCE830E305E4C9CACBFCE854072A
:1003AD006010F8C3E913F9EA13FAEB13FBEC13FC35
:1003BD00D8F130F52FC3E49CFCEF9BFFEE9AFEEDD8
:1003CD0099FDD0E0FBEF4E4D4C701222DB03020184
:1003DD00DDEC2CFCEF33FFEE33FEED33FDED30E7BE
:1003ED00EB0201B8EF2BFFEE3AFEED39FDD0E0FB4D
:1003FD0050130BBB00030201E0ED13FDEE13FEEFF6
:08040D0013FFEC13FC0201B81F
:100415000201E0EC5D046005E8590470030201D6B1
:100425001201A1580460F6EC4860F2EC7004FDFE80
:10043500FF22C860DB2481C85009C39860025006BA
:100445000201DD9850CAF582E9294B4A7005AB8255
:100455000201CC75F0007C1A7880C3EF9BEE9AED13
:1004650099400DC3EF9BFFEE9AFEED99FDE842F032
:10047500DC23ACF0D0E0FFD0E0FED0E0FDAB822085
:10048500E7101BEB60BAEC2CFCEF33FFEE33FEED0F
:1004950033FD0201B8E803F830E705C0F075F00058
:1004A500EF2FFFEE33FEED33FD40B830E7C280AAF3
:1004B5003F8000004120000042C80000447A00004F
:1004C500461C400047C35000497424004B189680D1
:1004D5004CBEBC205A0E1BCA6753C21C749DC5AEC8
:1004E500FB60065407601C2323120513EB54386088
:1004F500091204FF12050E120026ECF8EDF9EEFACA
:10050500EFCB22EB12050E80F1543803241C900426
:10051500B5FE93FC0EEE93FD0EEE930ECE93FF22E9
:03000000020B8967
:0C0B8900787FE4F6D8FD758172020BD075
:10052500BB010689828A83E0225002E722BBFE02D4
:09053500E32289828A83E4932207
:10053E00BB010CE58229F582E5833AF583E0225072
:10054E0006E92582F8E622BBFE06E92582F8E222BC
:0D055E00E58229F582E5833AF583E49322D6
:10056B00BB010689828A83F0225002F722BBFE016F
:02057B00F32269
:0E057D00C3E49FFFE49EFEE49DFDE49CFC228F
:10058B00FAE6FB0808E6F925F0F618E6CA3AF62271
:10059B00D083D082F8E4937012740193700DA3A3EF
:1005AB0093F8740193F5828883E473740293686003
:0605BB00EFA3A3A380DF03
:100E3F00EFB40A07740D120E4A740A309811A8996C
:100E4F00B8130CC2983098FDA899C298B811F63013
:070E5F0099FDC299F59922EB
:100B9500020D87E493A3F8E493A34003F68001F2E2
:100BA50008DFF48029E493A3F85407240CC8C33361
:100BB500C4540F4420C8834004F456800146F6DF30
:100BC500E4800B0102040810204080901096E47E1A
:100BD500019360BCA3FF543F30E509541FFEE49325
:100BE500A360010ECF54C025E060A840B8E493A3EC
:100BF500FAE493A3F8E493A3C8C582C8CAC583CA17
:100C0500F0A3C8C582C8CAC583CADFE9DEE780BECE
:01109C000053
:00000001FF
