:1001EA00CAB5CAB1BCE0BFD8D0C5CFA200B3B5C4A6
:1001FA00DAB3CBBFCDA3BA00C8CB00CFDED4D8B315
:10020A00CBBFCDA3BA00B5B1C7B0CFDED4D8B3CB7C
:10021A00BFCDA3BA00B0B4CFC2C9CFA1A2CFC2BCCE
:10022A00FCD4F6B4F300BBF2BCF5C9D9CFDED4D8FE
:10023A00B3CBBFCD00C9E8D6C3B3C9B9A6A3A10041
:10024A00C4A3C4E2C1BFD2BBA3BA00C4A3C4E2C15F
:10025A00BFB6FEA3BA00BFAACABCBDF8C3C500BCDC
:10026A00B4BDABB3F6C3C500CEBBD3DAD6D0BCE4BB
:10027A00CEBBD6C300D7DFB3F6C3C5CDE200BCB44C
:10028A00BDABBDF8C3C500BFAACABCB3F6C3C5009F
:09029A00BDF8C8EBC3C5C4DA00CD
:0C07D20002080000C101020C000AC10076
:1004B4007BFF7A0179EA7D027F011206307BFF7AA5
:1004C4000179F77D017F02120630AB09AA087D0687
:1004D4007F0212000E7BFF7A0279027D077F0212EF
:1004E40006307BFF7A0279057D017F03120630AB6B
:1004F4000DAA0C7D067F0312000E7BFF7A0279029F
:070504007D077F03020630B2
:100596001207DF7BFF7A0279107D017F0112063098
:1005A600AB0DAA0C7D087F0112000E7BFF7A027943
:1005B6001F7D017F031206307BFF7A0279307D01B1
:0505C6007F0402063075
:100794001207DF7BFF7A02793F7D037F0202063076
:10032F0012055D1207A41204B420B51AB2003000F2
:10033F0005120596800D1207947FE87E031206DCE6
:10034F001204B430B5FD30005220B60330B7DA20B6
:10035F00B6227F327E001206DC20B618C3E50D945C
:10036F0032E50C64809480500B050DE50D7002058D
:10037F000C12059620B7B27F327E001206DC20B732
:10038F00A8D3E50D9401E50C64809480409BE50DA6
:10039F00150D7002150C120596808E1205CB1201E9
:0603AF002E1207378083C7
:1006DC00E4FDFCC3ED9FEC9E5015E4FBFA0BBB0054
:0F06EC00010AEB646E4A70F50DBD00010C80E44D
:0106FB0022DC
:1005CB00C2B37F057E001206DCE4F51A1207B48F66
:1005DB000A051AE51AC3940A40F2D2B37F057E00CE
:1005EB001206DCE4F51A1207B48F0B051AE51AC3D1
:0405FB00940A40F22C
:0105FF0022D9
:100751008B148A1589167F0412050BAB14AA15A9EF
:08076100167D017F0402063041
:10012E00C202E50A7007E50B70030201E9E50AC396
:10013E00947F5021E50E7006E50F7002C20120017A
:10014E0009E50E703C750E018037E50F64027031C3
:10015E00750F03802C20010AE50EB40124750E02E2
:10016E00801FE50FB4031AE4F50FD3E5099400E5FB
:10017E000864809480400AE509150970021508D2BA
:10018E0002E50BC3947F5021E50E7006E50F700259
:10019E00D20120010BE50E6402703A750E03803514
:1001AE00E50F7031750F01802C200121E50EB4038F
:1001BE0024E4F50EC3E50994FFE5086480948050AD
:1001CE00140509E50970020508D2028008E50FB48E
:0B01DE000103750F023002031204B48D
:0101E90022F3
:0E07C400B2B17F017E001206DCB2B10206DC8B
:10073700D3E509950DE50C6480F8E50864809840D9
:0A074700061207C4C2B022D2B0228D
:0D06FC00C2A1C2A27F011207098C80D2A208
:10070900E4FEEEC39F5009E4FD0DBD32FC0E80F2FC
:0107190022BD
:100769007580FFC2A0D2A1D2A2E4FFE58030E704E0
:060779000FBF0AF7C2A247
:01077F002257
:1006B5007E80BF0106ED247FFE8019BF0206ED2472
:1006C5008FFE8010BF0306ED2487FE8007BF04045C
:0606D500ED2497FEAF06C4
:0106DB0022FC
:10055D00C2A37F64120709D2A3D2A41207097F3068
:10056D001207877F011207097F301207877F01125B
:10057D0007097F0C1207877F011207091207877F72
:09058D00011207097F060207872D
:070780007F341207877F346C
:0D078700AC07120769C2A01206FCC2A22234
:100600002430FF120623E51C04FF1207877D0AAE83
:100610001AAF1B7C001203CE7C007D0A1203CEEDC4
:030620002430FF84
:0D062300AC07120769D2A01206FCC2A22289
:10071A00120769D2A0D2A1C2A27F01120709D2A2EE
:0C072A00120709AC80C2A2120709AF043C
:0107360022A0
:04043900AB07AA055E
:10043D00120780EA541F2480F519EAD3941FEBC4E8
:10044D00540F40052488F980032480F9EB540FFFE5
:10045D00E47E80A807088005CEC313CE13D8F9F526
:10046D00188E17AF19120787AF0112078712071AD7
:10047D0012071AAB07EB7B00FA12071AEFFBEB42E0
:10048D0018EA4217E517FBAA18AF19120787AF0133
:10049D00120787AF03120623AF021206237F36120F
:0704AD0007877F300207877B
:10068B00120780E4FBEB2480FF1207877F801207A1
:10069B0087E4FAE4FF1206230ABA20F70BBB20E526
:0A06AB007F361207877F30020787B1
:10065F00AA07A9057F30120787AF02AD011206B5B1
:10066F00120787EB70047F208002AF03120623E589
:0C067F001370047F208002AF13020623DA
:10063000EFC394014028ED94014023EFD39404507C
:100640001DED940850181206B51207871203B5FF66
:0E065000600C120623740129F9E43AFA80EED8
:01065E002279
:04000E008A1A8B1BA4
:100012001206B58F1C7F30120787AF1C120787D3D9
:10002200E51B9409E51A9400500A7F20120623E585
:100032001B020127D3E51B9463E51A94005021AEFD
:100042001AAF1B7C007D0A1203CEEF2430FF12068A
:1000520023AE1AAF1B7C007D0A1203CEED020127EC
:10006200D3E51B94E7E51A940350237F201206235D
:10007200AE1AAF1B7C007D641203CEEF120600AEF7
:100082001AAF1B7C007D0A1203CEED020127D3E5D5
:100092001B940FE51A94275037AE1AAF1B7C037DD1
:1000A200E81203CEEF2430FF120623AE1AAF1B7CF8
:1000B200007D641203CE7C007D0A1203CEED12068F
:1000C20000AE1AAF1B7C007D0A1203CEED0201279F
:1000D200AE1AAF1BE4FCFD7B9F7A867901F8C3124E
:1000E200042340477F20120623AE1AAF1B7C277DD4
:1000F200101203CEEF2430FF120623E51C04FF1278
:100102000787AE1AAF1B7C037DE81206157D6412C9
:10011200060FE51C2402120609AE1AAF1B7C007DF5
:0B0122000A1203CEED2430FF1206236A
:01012D0022AF
:0A07DF007F011207877F320207092D
:10050B008F1D7513207B207D0112065F7513207DD7
:10051B0002AF1D12065F7513207D03AF1D12065F20
:10052B007513207D04AF1D12065F7513207D05AF7B
:10053B001D12065F7513207D06AF1D12065F751326
:10054B00207D07AF1D12065F7513207D08AF1D02BE
:02055B00065F39
:1007A400438901758CFF758AF7D2AFD2A9D28C2206
:0F07B400C2A5D2A5C2A530A6FDD2A7AF90C2A7FD
:0107C3002213
:03000B000207E900
:0907E900758CFF758AF7B2B2327B
:030000000202A356
:0C02A300787FE4F6D8FD7581200202EAA5
:1003B500BB010689828A83E0225002E722BBFE0246
:0903C500E32289828A83E4932279
:1003CE00BC000BBE0029EF8DF084FFADF022E4CC13
:1003DE00F875F008EF2FFFEE33FEEC33FCEE9DECDC
:1003EE00984005FCEE9DFE0FD5F0E9E4CEFD22ED22
:1003FE00F8F5F0EE8420D21CFEADF075F008EF2F6C
:10040E00FFED33FD4007985006D5F0F222C398FD5C
:05041E000FD5F0EA22F9
:10042300EB9FF5F0EA9E42F0E99D42F0EC6480C850
:0604330064809845F022F0
:1002AF0002032FE493A3F8E493A34003F68001F233
:1002BF0008DFF48029E493A3F85407240CC8C33350
:1002CF00C4540F4420C8834004F456800146F6DF1F
:1002DF00E4800B01020408102040809007D2E47ED6
:1002EF00019360BCA3FF543F30E509541FFEE49314
:1002FF00A360010ECF54C025E060A840B8E493A3DB
:10030F00FAE493A3F8E493A3C8C582C8CAC583CA05
:10031F00F0A3C8C582C8CAC583CADFE9DEE780BEBD
:0107DE00001A
:00000001FF
