:100D86007F01120D97C2A1120D978C80120D97D27A
:010D9600A2BA
:100D9700E4FEEEC39F5009E4FD0DBD32FC0E80F268
:010DA7002229
:100DC800C2A0D2A1C2A27580FFD2A2AF80C2A2EFF8
:040DD80020E7F322FB
:100D13008F228D237F38120DFCE522B4010E7F0E46
:100D2300120DFCE523B401097F0F80027F0C120D25
:090D3300FC7F06120DFC020E29E2
:06000300E4FDFF020D13F5
:050E29007F01020DFC39
:100D63008B39EF601DD394025018ED601594105029
:100D730011EF75F040A42D243FFF120DFCAF391283
:030D83000E0B2232
:100CE6008F348D358B368A378938AB36AA37A93893
:100CF60012050DFB6016AD350535AF34120D637464
:0D0D0600012538F538E43537F53780DE2259
:0F0DFC00AC07120DC8C2A2C2A0120D86C2A2225D
:0F0E0B00AC07120DC8C2A2D2A0120D86C2A2223D
:100DDC00438901758CFF758AEAD2AFD2A9D28C22D5
:0F0DEC00C2A3D2A3C2A330A4FDD2A5AF90C2A5CB
:010DFB0022D5
:03000B00020E1AC8
:090E1A00758CFF758AEAB2A03262
:100C0B00536574206D6178207765696768743A2045
:100C1B000025313664005765696768743A2025648E
:100C2B00004F7665727765696768743A205965730A
:100C3B00004F7665727765696768743A204E6F006E
:050E2300C109010950A6
:100CB800EF14600D14600E14600F14601324048088
:100CC80016D2B28014C2B28002D2B2D2B3C2B42257
:0E0CD800C2B2C2B3D2B422C2B2C2B3C2B422FC
:100DA800E4FDFCC3ED9FEC9E5015E4FBFA0BBB0081
:0F0DB800010AEB646E4A70F50DBD00010C80E47A
:010DC7002209
:100C86007BFF7A0C790B7D017F01120CE67537FF2D
:100C960075380C75391C753A0085093B7B007A005E
:100CA600792212065A7B007A0079227D017F0202A0
:020CB6000CE64A
:020B6A008F22D8
:100B6C00120BC08F33E533B50804E5226045120E35
:100B7C00298533087537FF75380C753921753A009E
:100B8C0085083B7B007A00792312065A7B007A0099
:100B9C0079237D017F01120CE6E508D395097BFFD3
:100BAC0040067A0C792C80047A0C793C7D017F020A
:030BBC00120CE632
:010BBF002213
:100AF900120003C2B020B51A30090C120E29C2091E
:100B09007F01120B6A8008120E29D209120C863055
:100B1900B5FD30093420B6167F647E00120DA82079
:100B2900B60CE509C3947350050509120C8620B764
:100B3900C47F647E00120DA820B7BAE509D39400DA
:100B490040B31509120C8680ACE4FF120B6AE50864
:100B5900D395094006C2B1D2B0809AD2B1C2B08051
:010B690094F7
:100C4B00120CB87F057E00120DA8E4F538120DECDE
:100C5B000538E538C3940A40F4120DECAC07E412E6
:100C6B0002167BD37A9B79DE783E120106E4FBFAFF
:0A0C7B007920784112001512024A98
:010C8500224C
:100BC000E4FF120C4B8F347F01120C4B8F357F02E8
:100BD000120C4B8F367F03120C4B8F377F04120C95
:100BE0004BE535FDE5342DFDE433FCE5367A002D8B
:100BF000FDEA3CFCE5372DFDEA3CFC7E00ED2FFFD5
:0A0C0000EE3CFE7C007D0512056548
:010C0A0022C7
:10000E000202B6E86480F8E933E83360110460F068
:10001E00ED33EC337009E8FCE9FDEAFEEBFF220458
:10002E0060DED3EB9FEA9EE99DE8C2E78CF0C2F753
:10003E0095F0400CE8CCF8E9CDF9EACEFAEBCFFB1F
:10004E0012028185D0F05804700320D5B3E80470F5
:10005E00075002B2D50202C092D5EC0460F7E4CC90
:10006E00C0E0C398F8603B94186008400DD0E0FBE8
:10007E00020298E4FBFAC9FC8028E830E406E4C9E1
:10008E00FBE4CAFCE830E305E4C9CACBFCE854073C
:10009E006010F8C3E913F9EA13FAEB13FBEC13FC47
:1000AE00D8F130F52FC3E49CFCEF9BFFEE9AFEEDEA
:1000BE0099FDD0E0FBEF4E4D4C701222DB03020295
:1000CE00BDEC2CFCEF33FFEE33FEED33FDED30E7F0
:1000DE00EB020298EF2BFFEE3AFEED39FDD0E0FB7E
:1000EE0050130BBB00030202C0ED13FDEE13FEEF27
:0800FE0013FFEC13FC02029851
:10010600EC4D6011E8497017ED33EC3304600DE4F3
:10011600FCFFFEFD22E933E8330470F80202B61252
:10012600028158046009E4CC248150062850090253
:1001360002C02840030202BDC0E0EB4A7044B98009
:1001460006D0E0FB0202ACEF4E701CBD8008EBFF50
:10015600EAFEE9FD80EBE98DF0A4FEE5F00201EF91
:10016600E9CDF9EAFEEBFFEF89F0A4FCE5F0CE89D4
:10017600F0A42EFFE435F0CD89F0A42DFEE435F091
:100186008067EF4E7005BD80D780C3EF8BF0A4ACBF
:10019600F0EE8BF0A42CFCE435F0F8EF8AF0A42CFA
:1001A600E5F038FCE433CB8DF0A42CFCE5F03BF80D
:1001B600EE8AF0A42CFCE5F038F8E433CF89F0A4FD
:1001C6002CFCE5F038CF3400CE89F0A42FFFE5F003
:1001D6003EFEE433C98DF0A42EFEE5F039CD8AF05B
:1001E600A42FFFE5F03EFEE43DFD33D0E0FB5007D3
:1001F6000BBB000F0202C0EC2CFCEF33FFEE33FE0C
:06020600ED33FD02029839
:10020C0075F020800E75F010800575F0087D007E6D
:10021C00007F003392D530D5031205BAEC33401071
:10022C00EF33FFEE33FEED33FDEC33FCD5F0ED2276
:0E023C00E5F0247EA2D513CC92E7CDCEFF22B2
:10024A00EDD2E7CD33EC3392D524814006E4FFFEAC
:10025A00FDFC22FCE4CFCECDCC24E0501174FF800B
:10026A00EDC3CC13CCCD13CDCE13CECF13CF0470A8
:07027A00F030D5DE0205BAE9
:1005FE00E54B2437F8E6054B22783430070278377E
:10060E00E475F0011205C802050D2000EB7F2ED215
:10061E00008018EF540F2490D43440D4FF30040BD4
:10062E00EF24BFB41A0050032461FFE54C6002159D
:10063E004C054FE54F7002054E30070D7834E475CA
:10064E00F0011205C8EF020553020D3C7403D207E8
:10065E008003E4C207F54B8B348A358936E4F54CBA
:10066E00F54EF54FE54C60077F2012063980F57583
:10067E004DFFC201C200C202C203C205C206C208B9
:10068E00120607FF700D3007057F0012064AAF4FA6
:10069E00AE4E22B4255FC2D5C204120607FF24D087
:1006AE00B40A00501A75F00A784C30D50508B6FF1A
:1006BE000106C6A426F620D5047002D20380D924E2
:1006CE00CFB41A00EF5004C2E5D204020937D201AA
:1006DE0080C6D20080C0D20280BCD2D580BAD205EC
:1006EE0080B47F201206392002077401B54C0040F9
:1006FE00F11205FEFF120639020672D208D20680EA
:10070E00951205FEFB1205FEFA1205FEF94A4B7014
:10071E0006792E7A0A7BFF20022EE54C602A7E0097
:10072E008E8275830012052660060EEE654D70F002
:10073E00C2D5EBC0E0EAC0E0E9C0E0EE120997D006
:10074E00E0F9D0E0FAD0E0FB12050DFF60AAEBC095
:10075E00E0EAC0E0E9C0E0120639D0E02401F9D0A9
:10076E00E03400FAD0E0FBE54D0460DCD54DD980D5
:10077E0087D20280A212097A60F7E54D7001041249
:10078E0002CBA94D600DE54D600914F54D120A21FD
:10079E00EF60F3EA30E702F404C3995077EAF425E8
:1007AE004D0430E701E404F54D800D12097A60C165
:1007BE00EA054D254D1202CBEA784AF630E701E400
:1007CE00254D04D54D0420050114120997E4C0E00F
:1007DE00120A21784AE6601320E70714F612062162
:1007EE00802204F6D0E014C0E07F00120621E54D11
:1007FE006007120618154D800B300503120618D02F
:10080E00E0020672D0E00480C512097A60A0E54DC0
:10081E00041202CB784AEAF6E54D20050260010487
:05082E002404120997EB
:1008330074FF04C0E0120A21120621E54D200502CF
:100843006003120618D0E0B54DE87F4512062B78F9
:100853004AE67F2B30E7047F2DF404C0E01206390B
:10086300D0E075F00A84C0F0120622D0E01206220E
:10087300020672791080027908C206C2088008D283
:10088300D5790A8004790AC2D5E54D047002F54D85
:10089300E4FAFDFEFF1205FEFC7B0820011312059E
:1008A300FEFD7B1030000A1205FEFE1205FEFF7BE3
:1008B30020EC3382D592D55013C3E43000069FFF5A
:1008C300E49EFEE42001039DFDE49CFCE4CBF8C21E
:1008D30001EC700CCFCECDCCE824F8F870F3801780
:1008E300C3EF33FFEE33FEED33FDEC33FCEB33FBB1
:1008F300994002FB0FD8E9EB300105F8D0E0C4487A
:10090300B201C0E00AEC4D4E4F78207B0070C2EA82
:10091300B54D0040BCC0E0120999D0F0D0E02001F1
:1009230004C4C0E0C4B201C0F0120622D0F0D5F076
:10093300EB0206721205D8070F5308765806E04CEF
:1009430006DC42087A4F08824408824906F54308C8
:10095300885507B9460817450783470A4E5006E4EA
:100963002D06E82E070B2B06EC230709200A372A4E
:1009730006A44800000703E54DB4FF03754D0612B6
:1009830005FEFC1205FEFD1205FEFE1205FEFF78B4
:10099300430202FA790AA2D5200314300509B910DB
:1009A300020404B9080104A2D52006025001042060
:1009B30002689202B54C005034C0E07F2030031926
:1009C3007F30A20272067205500F1209F0C202C2F2
:1009D30006C205C2087F30800F300503E9C0E0126C
:1009E3000639300503D0E0F9D0E0B54CCC3005171B
:1009F3007F30B9100C1206397F583004077F788096
:100A030003B908031206393002057F2D0206397F28
:100A1300202008F87F2B2006F322920280CF7F004C
:100A2300B4070050052443F8E6FF22286E756C6C6A
:100A33002900D2011205FE3001F8C201784C30D5ED
:100A43000108F60206A42D504349581205FE24035B
:100A5300B405004001E4900A499312062A743A123D
:0A0A6300062AD203754C040208763F
:10028100E9D2E7C933E833F892D5EDD2E7CD33ECC3
:0702910033FC5002B2D5223C
:10029800EC30E7100FBF000C0EBE00080DBD0004C7
:1002A8000BEB6014A2D5EB13FCED92E7FD2274FF73
:1002B800FCFDFEFF22E480F8A2D574FF13FC7D80CC
:0302C800E480EFE0
:1002CB00F920E72824F950037907E4F42402FB18FA
:1002DB00DBFDE624FB5014E9600DE4F618E604F6AA
:0F02EB00B40A08E4F6D9F57401F60A22C2D52246
:1002FA00ED33EC3392D5FA602AB4FF33EDC2E77BD3
:10030A00FF60067A03791FE4227A03792820D5044C
:10031A007A037923224E614E002B494E46002D491D
:10032A004E4600E47A08F608DAFC7B00740722E8F5
:10033A00C0E0ECC0E0EDC0E0EEC0E0EFC0E0EA757E
:10034A00F010A4CAABF075F04DA42BFBE435F0FC19
:10035A00EA2410FAEB34C5FBEC34D9FCEDC2E7FF12
:10036A0075F056A4F42411C5F0F434C58FF0A42A0C
:10037A00E5F03BE43CF620E7141204CDD0E0FFD0D0
:10038A00E0FED0E0FDD0E0FC1204008014F4041278
:10039A0004CDD0E0FFD0E0FED0E0FDD0E0FC1201B9
:1003AA0006D0E0F8E6FAEDD2E7CD33EC332482FB4F
:1003BA00E4C3CF33CFCE33CECD33CD33DBF37B079C
:1003CA0075F00A846004F6081B0AE5F0F6088FF057
:1003DA00740AA4FFACF08EF0740AA42CFEACF050A0
:1003EA00010C8DF0740AA42CFDE435F0F608DBDE6E
:0303FA0074072263
:1003FD000202C0EC5D046005E8590470030202B608
:10040D00120281580460F6EC4860F2EC7004FDFEB7
:10041D00FF22C860DB2481C85009C39860025006D2
:10042D000202BD9850CAF582E9294B4A7005AB828C
:10043D000202AC75F0007C1A7880C3EF9BEE9AED4A
:10044D0099400DC3EF9BFFEE9AFEED99FDE842F04A
:10045D00DC23ACF0D0E0FFD0E0FED0E0FDAB82209D
:10046D00E7101BEB60BAEC2CFCEF33FFEE33FEED27
:10047D0033FD020298E803F830E705C0F075F0008F
:10048D00EF2FFFEE33FEED33FD40B830E7C280AA0B
:10049D003F8000004120000042C80000447A000067
:1004AD00461C400047C35000497424004B189680E9
:1004BD004CBEBC205A0E1BCA6753C21C749DC5AEE0
:1004CD00FB60065407601C23231204FBEB543860B9
:1004DD00091204E71204F6120106ECF8EDF9EEFA32
:1004ED00EFCB22EB1204F680F1543803241C900458
:1004FD009DFE93FC0EEE93FD0EEE930ECE93FF221A
:03000000020A6D84
:0C0A6D00787FE4F6D8FD75814F020AB4D2
:10050D00BB010689828A83E0225002E722BBFE02EC
:09051D00E32289828A83E493221F
:10052600BB010CE58229F582E5833AF583E022508A
:1005360006E92582F8E622BBFE06E92582F8E222D4
:0D054600E58229F582E5833AF583E49322EE
:10055300BB010689828A83F0225002F722BBFE0187
:02056300F32281
:10056500BC000BBE0029EF8DF084FFADF022E4CC7A
:10057500F875F008EF2FFFEE33FEEC33FCEE9DEC43
:10058500984005FCEE9DFE0FD5F0E9E4CEFD22ED89
:10059500F8F5F0EE8420D21CFEADF075F008EF2FD3
:1005A500FFED33FD4007985006D5F0F222C398FDC4
:0505B5000FD5F0EA2261
:0E05BA00C3E49FFFE49EFEE49DFDE49CFC2252
:1005C800FAE6FB0808E6F925F0F618E6CA3AF62234
:1005D800D083D082F8E4937012740193700DA3A3B2
:1005E80093F8740193F5828883E4737402936860C6
:0605F800EFA3A3A380DFC6
:100D3C00EFB40A07740D120D47740A309811A89974
:100D4C00B8130CC2983098FDA899C298B811F63017
:070D5C0099FDC299F59922EF
:100A7900020AF9E493A3F8E493A34003F68001F290
:100A890008DFF48029E493A3F85407240CC8C3337E
:100A9900C4540F4420C8834004F456800146F6DF4D
:100AA900E4800B0102040810204080900E23E47EAC
:100AB900019360BCA3FF543F30E509541FFEE49342
:100AC900A360010ECF54C025E060A840B8E493A309
:100AD900FAE493A3F8E493A3C8C582C8CAC583CA34
:100AE900F0A3C8C582C8CAC583CADFE9DEE780BEEC
:010E280000C9
:00000001FF
