:0B03C300BBB6D3ADCAB9D3C3A3A100E1
:0D03A9007FA77EAB7D10DDFEDEFADFF600E3
:0103B6002224
:100386001202227BFF7A0379C37D017F0112025B91
:0203960080FEE7
:0D033400C2A1C2A27F011203418C90D2A28F
:10034100E4FEEEC39F5009E4FD0DBD0AFC0E80F2F0
:010351002289
:10036F007590FFC2A0D2A1D2A2E4FFE59030E704BE
:06037F000FBF0AF7C2A245
:010385002255
:10030D007E80BF0106ED247FFE8019BF0206ED241D
:10031D008FFE8010BF0306ED2487FE8007BF040407
:06032D00ED2497FEAF066F
:0103330022A7
:10022200C2A37F64120341D2A3D2A41203417F303E
:1002320012039F7F011203417F3012039F7F01123D
:1002420003417F0C12039F7F0112034112039F7F20
:09025200011203417F0602039F23
:070398007F3412039F7F3444
:0A039F00AC07C2A0120334C2A22270
:10028A002430FF1202ADE51104FF12039F7D0AAE6E
:10029A000FAF107C0012013C7C007D0A12013CED7C
:0302AA002430FFFE
:0A02AD00AC07D2A0120334C2A22253
:1003520012036FD2A0D2A1C2A27F01120341D2A284
:0C036200120341AC90C2A2120341AF0490
:01036E00226C
:0401A700AB07AA05F3
:1001AB00120398EA541F2480F50EEAD3941FEBC474
:1001BB00540F40052488F980032480F9EB540FFF7A
:1001CB00E47E80A807088005CEC313CE13D8F9F5BB
:1001DB000D8E0CAF0E12039FAF0112039F12035231
:1001EB00120352AB07EB7B00FA120352EFFBEB420D
:1001FB000DEA420CE50CFBAA0DAF0E12039FAF01EB
:10020B0012039FAF031202ADAF021202AD7F361283
:07021B00039F7F3002039FE7
:1002E300120398E4FBEB2480FF12039F7F80120329
:1002F3009FE4FAE4FF1202AD0ABA20F70BBB20E534
:0A0303007F3612039F7F3002039F34
:1002B700AA07A9057F3012039FAF02AD0112030DF4
:1002C70012039FEB70047F208002AF031202ADE59B
:0C02D7000B70047F208002AF0B0202AD10
:10025B00EFC394014028ED94014023EFD394045055
:10026B001DED9408501812030D12039F120123FF6A
:0E027B00600C1202AD740129F9E43AFA80EE2B
:010289002252
:040003008A0F8B10C5
:1000070012030D8F117F3012039FAF1112039FD37D
:10001700E5109409E50F9400500A7F201202ADE520
:100027001002011CD3E5109463E50F94005021AE34
:100037000FAF107C007D0A12013CEF2430FF120243
:10004700ADAE0FAF107C007D0A12013CED02011C22
:10005700D3E51094E7E50F940350237F201202ADF8
:10006700AE0FAF107C007D6412013CEF12028AAE26
:100077000FAF107C007D0A12013CED02011CD3E595
:1000870010940FE50F94275037AE0FAF107C037D08
:10009700E812013CEF2430FF1202ADAE0FAF107C27
:1000A700007D6412013C7C007D0A12013CED1202C6
:1000B7008AAE0FAF107C007D0A12013CED02011CD5
:1000C700AE0FAF10E4FCFD7B9F7A867901F8C3126F
:1000D700019140477F201202ADAE0FAF107C277D04
:1000E7001012013CEF2430FF1202ADE51104FF129C
:1000F700039FAE0FAF107C037DE812029F7D641251
:100107000299E5112402120293AE0FAF107C007D15
:0B0117000A12013CED2430FF1202AD83
:0101220022BA
:0A03CE007F0112039F7F32020341FA
:030000000203B741
:0C03B700787FE4F6D8FD75811102038602
:10012300BB010689828A83E0225002E722BBFE02DA
:09013300E32289828A83E493220D
:10013C00BC000BBE0029EF8DF084FFADF022E4CCA7
:10014C00F875F008EF2FFFEE33FEEC33FCEE9DEC70
:10015C00984005FCEE9DFE0FD5F0E9E4CEFD22EDB6
:10016C00F8F5F0EE8420D21CFEADF075F008EF2F00
:10017C00FFED33FD4007985006D5F0F222C398FDF1
:05018C000FD5F0EA228E
:10019100EB9FF5F0EA9E42F0E99D42F0EC6480C8E5
:0601A10064809845F02285
:00000001FF
