:04000300FCF9F3F61B
:0A012B00010800010903C100C10131
:10010400758901758C3C758AB0D2AFD2A9D28C2086
:10011400B008E4F509B20030B0FD20B1F27509036E
:07012400B20120B1EA80FBEB
:03000B0002009A56
:10009A00C0E0C083C082C0D075D000C006C007755A
:1000AA008C3C758AB0AF080508EFC39401403E75D1
:1000BA000800300038300112C3E509648094844096
:1000CA0003750900AF0905098010C3E50964809426
:1000DA00805003750903AF091509EF3395E0FE74E3
:1000EA00032FF58274003EF583E493F5A0D007D080
:0A00FA0006D0D0D082D083D0E032CF
:0300000002000EED
:0C000E00787FE4F6D8FD758120020055D3
:10001A00020104E493A3F8E493A34003F68001F2F7
:10002A0008DFF48029E493A3F85407240CC8C333E7
:10003A00C4540F4420C8834004F456800146F6DFB6
:10004A00E4800B010204081020408090012BE47E1A
:10005A00019360BCA3FF543F30E509541FFEE493AB
:10006A00A360010ECF54C025E060A840B8E493A372
:10007A00FAE493A3F8E493A3C8C582C8CAC583CA9D
:10008A00F0A3C8C582C8CAC583CADFE9DEE780BE55
:0101350000C9
:00000001FF
