:0D0088007FA77EAB7D10DDFEDEFADFF60007
:010095002248
:0E00960012000E12007812000312008880F58E
:10000E00438920758DFD758BFD759850D2AFD2AC9E
:03001E00D28E225D
:080003008F993099FDC299228A
:03002300020026B2
:10002600C0E0C0F0C083C082C0D075D000C000C0A0
:1000360001C002C003C004C005C006C0072099075E
:10004600C298AF99120000D007D006D005D004D0D0
:1000560003D002D001D000D0D0D082D083D0F0D04F
:02006600E03286
:10006800438901758CFF758AEAD2AFD2A9D28C2256
:0F007800C2A1D2A1C2A130A2FDD2A3AF90C2A358
:010087002256
:03000B000200B040
:0900B000758CFF758AEAB2A032DA
:030000000200A457
:0C00A400787FE4F6D8FD75810702009615
:00000001FF
