:200000000130FFFFFFFFFFFFFFFFFFFFFFFFFFFFFFFFFFFFFFFFFFFFFFFFFFFFFFFFFFFFCD
:20002000FFFFFFFFFFFFFFFFFFFFFFFFFFFFFFFF7520007521007522007523007524007568
:20004000250012004E1200A512007080E3227A02794090BF007400F00000E5905480B480F8
:200060000280F7D2970000E00000F709A3DAE82278207A067B02E690009593F608DAF778BD
:200080002090FE00E64480F00890FD00E6F00890FB00E6F0223F065B4F666D7D077F6F7777
:2000A0007C395E7971785079407B02E775F064A4E5F075F005A4FDE5F0F6ED08F60809DB6F
:2000C000EA782079507C02E7B4002409E7B40A025068405CB464025002405F12014BF6082D
:2000E000E5F0120150F608E5F0F60809DCD92274FF12014BF55585F05674012556F55609ED
:20010000E712014B2555F555E5F02556F556B46400400CE5552401F555E5569464F556E5CB
:2001200055F608E556120150F608E5F0F6080922760008760008F6080922760008120150CC
:20014000F608E5F0F60809220200C775F064842275F00A84227DFA7F027EFA0000000000E6
:0A016000000000DEF6DFF2DDEE2203
:00000001FF
