:05025A0012000380FE0C
:08024B008F993099FDC2992240
:0302530001150092
:10000300758920758DFD758BFD759850D2AFD2AC77
:03001300D28E2268
:03002300020206D0
:10020600C0E0C0F0C083C082C0D075D000C000C0BE
:1002160001C002C003C004C005C006C00720990A79
:10022600C298859915AF151201A8D007D006D0053A
:10023600D004D003D002D001D000D0D0D082D08359
:05024600D0F0D0E03211
:030256000108009C
:0B001600AE08050874092EF8A60722AA
:1001A800E5087005BF55028020E508B40105BFAA1F
:1001B800028016E508B40202800FE508B403028045
:1001C80008E508B40406BFAA03020016E50864059A
:0701D8007028EF645570234D
:1001DF00120016780F7C007D007B007A0079097E73
:1001EF00007F061200F67B007A00790F7D06120061
:0101FF0000FF
:060200008000E4F5082275
:0300000002011CDE
:0C011C00787FE4F6D8FD758115020163C0
:10002600E709F608DFFA8046E709F208DFFA803EBC
:1000360088828C83E709F0A3DFFA8032E309F608A9
:10004600DFFA8078E309F208DFFA807088828C8311
:10005600E309F0A3DFFA806489828A83E0A3F608C5
:10006600DFFA805889828A83E0A3F208DFFA804C9F
:1000760080D280FA80C680D4806980F28033801076
:1000860080A680EA809A80A880DA80E280CA8033DF
:1000960089828A83ECFAE493A3C8C582C8CCC58357
:1000A600CCF0A3C8C582C8CCC583CCDFE9DEE78027
:1000B6000D89828A83E493A3F608DFF9ECFAA9F0A6
:1000C600EDFB2289828A83ECFAE0A3C8C582C8CCFC
:1000D600C583CCF0A3C8C582C8CCC583CCDFEADE15
:1000E600E880DB89828A83E493A3F208DFF980CC77
:1000F60088F0EF60010E4E60C388F0ED2402B40470
:100106000050B9F582EB2402B4040050AF23234516
:06011600822390007673C5
:1001280002025AE493A3F8E493A34003F68001F291
:1001380008DFF48029E493A3F85407240CC8C333D8
:10014800C4540F4420C8834004F456800146F6DFA7
:10015800E4800B0102040810204080900253E47EE2
:10016800019360BCA3FF543F30E509541FFEE4939C
:10017800A360010ECF54C025E060A840B8E493A363
:10018800FAE493A3F8E493A3C8C582C8CAC583CA8E
:10019800F0A3C8C582C8CAC583CADFE9DEE780BE46
:0102590000A4
:00000001FF
