:0A02F200C0F9A4B0999282F8809040
:1001D6001202278F097FE87E031202A91202278FD7
:1001E60009E4F508E50975F00A849002F293F5B082
:1001F600D290C2917FC81202FC75B0FFE50975F076
:100206000A84E5F09002F293F5B0C290D2917FC8CD
:100216001202FC75B0FF0508E508C3940A40C580C4
:01022600BB1C
:0602FC00000000DFFB2200
:10026300E4FED2A07F0A1202FCC2A07F781202FC35
:10027300D2A07F101202FCA2A033FE7F501202FC18
:04028300D2A0F58090
:010287002254
:10028800E4FD7E08C2A07F011202FCD2A0EDC313D8
:10029800FD30A0034305807F0B1202FCDEE6AF05AC
:0102A8002233
:0202C900AE077E
:1002CB007D08C2A0EE1392A07F0C1202FCD2A0EE0E
:0A02DB00C313FE7F051202FCDDE8EC
:0102E50022F6
:100227001202637FCC1202C97F441202C912026311
:100237007FCC1202C97FBE1202C9120288AC071214
:100247000288EFFEAD04EDFFAC06E412010EE4FBFD
:0B025700FA7980783D12000312014785
:010262002279
:1002A900E4FDFCC3ED9FEC9E5015E4FBFA0BBB008B
:0F02B900010AEB646E4A70F50DBD00010C80E484
:0102C8002213
:10000300EC4D6011E8497017ED33EC3304600DE4F7
:10001300FCFFFEFD22E933E8330470F80201B3125A
:10002300017E58046009E4CC24815006285009025B
:1000330001BD2840030201BAC0E0EB4A7044B98015
:1000430006D0E0FB0201A9EF4E701CBD8008EBFF58
:10005300EAFEE9FD80EBE98DF0A4FEE5F00200EC99
:10006300E9CDF9EAFEEBFFEF89F0A4FCE5F0CE89D8
:10007300F0A42EFFE435F0CD89F0A42DFEE435F095
:100083008067EF4E7005BD80D780C3EF8BF0A4ACC3
:10009300F0EE8BF0A42CFCE435F0F8EF8AF0A42CFE
:1000A300E5F038FCE433CB8DF0A42CFCE5F03BF811
:1000B300EE8AF0A42CFCE5F038F8E433CF89F0A401
:1000C3002CFCE5F038CF3400CE89F0A42FFFE5F007
:1000D3003EFEE433C98DF0A42EFEE5F039CD8AF05F
:1000E300A42FFFE5F03EFEE43DFD33D0E0FB5007D7
:1000F3000BBB000F0201BDEC2CFCEF33FFEE33FE14
:06010300ED33FD02019541
:1001090075F020800E75F010800575F0087D007E71
:10011900007F003392D530D5031201C8EC3340106B
:10012900EF33FFEE33FEED33FDEC33FCD5F0ED227A
:0E013900E5F0247EA2D513CC92E7CDCEFF22B6
:10014700EDD2E7CD33EC3392D524814006E4FFFEB0
:10015700FDFC22FCE4CFCECDCC24E0501174FF800F
:10016700EDC3CC13CCCD13CDCE13CECF13CF0470AC
:07017700F030D5DE0201C8E3
:10017E00E9D2E7C933E833F892D5EDD2E7CD33ECC7
:07018E0033FC5002B2D52240
:10019500EC30E7100FBF000C0EBE00080DBD0004CB
:1001A5000BEB6014A2D5EB13FCED92E7FD2274FF77
:1001B500FCFDFEFF22E480F8A2D574FF13FC7D80D0
:0301C500E480EFE4
:030000000202E613
:0C02E600787FE4F6D8FD7581090201D68E
:0E01C800C3E49FFFE49EFEE49DFDE49CFC2248
:00000001FF
