:100BD80057616974696E672E2E00252E326656009D
:100BE80052616E67653A200028302D302E3556291F
:100BF8000028302D3556290028302D35305629004B
:100C080028302D35303056290000564F4C3A2000F8
:040DB300C109C10AA7
:100C7B00120D53120DAD7BFF7A0B79D87D017F01DD
:100C8B00120C4E3009FD120D76EF650960058F09C8
:0C0C9B00120B1CAF09120003C20980E715
:100C1800D209BF010AC2A4C2A5C2A675080122BF93
:100C2800020AD2A4C2A5C2A675080222BF030AC23C
:100C3800A4D2A5C2A675080322BF0409D2A4D2A5CE
:060C4800C2A6750804229B
:100D3C00E4FEEEC39F500FE4FDE4FC0CBC6EFC0D16
:060D4C00BD14F60E80EC60
:010D5200227E
:0409F9008F258D2693
:1009FD00850982758300E508B4010CE4F534F533FF
:100A0D00F53275313F8034E508B4020DE4F534F567
:100A1D00337532A07531408022E508B4030DE4F53D
:100A2D0034F5337532487531428010E508B4040B46
:100A3D00E4F534F5337532FA7531437538FF753990
:100A4D000B753AE2AE83AF82AD07AC06EC1201D165
:100A5D00E4FBFA797F784312012FAB34AA33A93224
:100A6D00A8311200268F3E8E3D8D3C8C3B7B007A4B
:100A7D000079271205E67B007A007927AD26AF2590
:030A8D00020C4E0A
:100B1C00120DB87BFF7A0B79E87D017F01120C4E28
:100B2C00E508B4010B7522FF75230B7524F0803991
:100B3C00E508B4020B7522FF75230B7524F9802987
:100B4C00E508B4030B7522FF75230C75240080197E
:100B5C00E508B4040B7522FF75230C752408800975
:100B6C007522FF75230C752411AB22AA23A9247DB1
:100B7C00087F01120C4E7BFF7A0C79127D017F02EB
:0A0B8C00120C4E7D067F020209F9EB
:100D6600438901758CF1758A9AD2AFD2A9D28C22A9
:0F0D7600C2A1D2A1C2A130A2FDD2A3AF90C2A34D
:010D8500224B
:03000B00020DA43F
:090DA400758CF1758A9AB2A03237
:100D5300438920758DFD758BFD759850D2AFD2AC4C
:030D6300D28E220B
:080003008F993099FDC299228A
:03002300020B9637
:100B9600C0E0C0F0C083C082C0D075D000C000C025
:100BA60001C002C003C004C005C006C007209907E3
:100BB600C298AF99120C18D007D006D005D004D031
:100BC60003D002D001D000D0D0D082D083D0F0D0D4
:020BD600E0320B
:100D1A007F01120D2BC2B5120D2B8C80120D2BD216
:010D2A00B612
:100D2B00E4FEEEC39F5009E4FD0DBD32FC0E80F2D4
:010D3B002295
:10000E00C2B4D2B5C2B67580FFD2B6AF80C2B6EF5B
:04001E0020E7F322C2
:100CA7008F228D237F38120D86E522B4010E7F0E29
:100CB700120D86E523B401097F0F80027F0C120D08
:090CC700867F06120D86020DB8AD
:060DAD00E4FDFF020CA7AB
:050DB8007F01020D8621
:100CF7008B3AEF601DD394025018ED601594105095
:100D070011EF75F040A42D243FFF120D86AF3A1264
:030D17000D952215
:100C4E008F358D368B378A388939AB37AA38A93923
:100C5E001204EEFB6016AD360536AF35120CF77486
:0D0C6E00012539F539E43538F53880DE22EE
:0F0D8600AC0712000EC2B6C2B4120D1AC2B622CA
:0F0D9500AC0712000EC2B6D2B4120D1AC2B622AB
:10002600EC4D6011E8497017ED33EC3304600DE4D4
:10003600FCFFFEFD22E933E8330470F802023F12AA
:10004600020A58046009E4CC2481500628500902AB
:100056000249284003020246C0E0EB4A7044B980D8
:1000660006D0E0FB020235EF4E701CBD8008EBFFA8
:10007600EAFEE9FD80EBE98DF0A4FEE5F002010F52
:10008600E9CDF9EAFEEBFFEF89F0A4FCE5F0CE89B5
:10009600F0A42EFFE435F0CD89F0A42DFEE435F072
:1000A6008067EF4E7005BD80D780C3EF8BF0A4ACA0
:1000B600F0EE8BF0A42CFCE435F0F8EF8AF0A42CDB
:1000C600E5F038FCE433CB8DF0A42CFCE5F03BF8EE
:1000D600EE8AF0A42CFCE5F038F8E433CF89F0A4DE
:1000E6002CFCE5F038CF3400CE89F0A42FFFE5F0E4
:1000F6003EFEE433C98DF0A42EFEE5F039CD8AF03C
:10010600A42FFFE5F03EFEE43DFD33D0E0FB5007B3
:100116000BBB000F020249EC2CFCEF33FFEE33FE63
:06012600ED33FD02022191
:10012C00020249EC5D046005E85904700302023FC9
:10013C0012020A580460F6EC4860F2EC7004FDFE02
:10014C00FF22C860DB2481C85009C39860025006A6
:10015C000202469850CAF582E9294B4A7005AB82D7
:10016C0002023575F0007C1A7880C3EF9BEE9AED95
:10017C0099400DC3EF9BFFEE9AFEED99FDE842F01E
:10018C00DC23ACF0D0E0FFD0E0FED0E0FDAB822071
:10019C00E7101BEB60BAEC2CFCEF33FFEE33FEEDFB
:1001AC0033FD020221E803F830E705C0F075F000DA
:1001BC00EF2FFFEE33FEED33FD40B830E7C280AADF
:1001CC0075F020800E75F010800575F0087D007EAE
:1001DC00007F003392D530D503120546EC33401026
:1001EC00EF33FFEE33FEED33FDEC33FCD5F0ED22B7
:0E01FC00E5F0247EA2D513CC92E7CDCEFF22F3
:10058A00E54C2438F8E6054C2278353007027838ED
:10059A00E475F0011205540204EE2000EB7F2ED21E
:1005AA00008018EF540F2490D43440D4FF30040B49
:1005BA00EF24BFB41A0050032461FFE54D60021511
:1005CA004D0550E5507002054F30070D7835E4753A
:1005DA00F001120554EF020534020CD07403D2075D
:1005EA008003E4C207F54C8B358A368937E4F54D2A
:1005FA00F54FF550E54D60077F201205C580F5756A
:10060A004EFFC201C200C202C203C205C206C2082C
:10061A00120593FF700D3007057F001205D6AF5003
:10062A00AE4F22B4255FC2D5C204120593FF24D06F
:10063A00B40A00501A75F00A784D30D50508B6FF8D
:10064A000106C6A426F620D5047002D20380D92456
:10065A00CFB41A00EF5004C2E5D2040208C3D20193
:10066A0080C6D20080C0D20280BCD2D580BAD20560
:10067A0080B47F201205C52002077401B54D0040E1
:10068A00F112058AFF1205C50205FED208D20680BC
:10069A009512058AFB12058AFA12058AF94A4B70E5
:1006AA000679BA7A097BFF20022EE54D602A7E0080
:1006BA008E8275830012050760060EEE654E70F095
:1006CA00C2D5EBC0E0EAC0E0E9C0E0EE120923D0EF
:1006DA00E0F9D0E0FAD0E0FB1204EEFF60AAEBC02A
:1006EA00E0EAC0E0E9C0E01205C5D0E02401F9D093
:1006FA00E03400FAD0E0FBE54E0460DCD54ED98048
:10070A0087D20280A212090660F7E54E7001041230
:10071A000254A94E600DE54E600914F54E1209AD5A
:10072A00EF60F3EA30E702F404C3995077EAF4255C
:10073A004E0430E701E404F54E800D12090660C14B
:10074A00EA054E254E120254EA784BF630E701E4E8
:10075A00254E04D54E0420050114120923E4C0E0F5
:10076A001209AD784BE6601320E70714F61205ADBF
:10077A00802204F6D0E014C0E07F001205ADE54EF9
:10078A0060071205A4154E800B3005031205A4D08C
:10079A00E00205FED0E00480C512090660A0E54E1D
:1007AA0004120254784BEAF6E54E20050260010471
:0507BA002404120923D4
:1007BF0074FF04C0E01209AD1205ADE54E2005022D
:1007CF0060031205A4D0E0B54EE87F451205B77857
:1007DF004BE67F2B30E7047F2DF404C0E01205C5F4
:1007EF00D0E075F00A84C0F01205AED0E01205AE6D
:1007FF000205FE791080027908C206C2088008D26D
:10080F00D5790A8004790AC2D5E54E047002F54EF7
:10081F00E4FAFDFEFF12058AFC7B08200113120586
:10082F008AFD7B1030000A12058AFE12058AFF7BB3
:10083F0020EC3382D592D55013C3E43000069FFFCE
:10084F00E49EFEE42001039DFDE49CFCE4CBF8C292
:10085F0001EC700CCFCECDCCE824F8F870F38017F4
:10086F00C3EF33FFEE33FEED33FDEC33FCEB33FB25
:10087F00994002FB0FD8E9EB300105F8D0E0C448EE
:10088F00B201C0E00AEC4D4E4F78207B0070C2EAF7
:10089F00B54E0040BCC0E0120925D0F0D0E02001D9
:1008AF0004C4C0E0C4B201C0F01205AED0F0D5F060
:1008BF00EB0205FE120564069B53080258066C4CAA
:1008CF0006684208064F080E44080E490681430881
:1008DF00145507454607A345070F4709DA50067019
:1008EF002D06742E06972B06782306952009C32A0A
:1008FF000630480000068FE54EB4FF03754E061212
:10090F00058AFC12058AFD12058AFE12058AFF78F8
:10091F0044020283790AA2D5200314300509B910C5
:10092F00020404B9080104A2D520060250010420D4
:10093F0002689202B54D005034C0E07F2030031999
:10094F007F30A20272067205500F12097CC202C2DA
:10095F0006C205C2087F30800F300503E9C0E012E0
:10096F0005C5300503D0E0F9D0E0B54DCC30051703
:10097F007F30B9100C1205C57F583004077F78807F
:10098F0003B908031205C53002057F2D0205C57F87
:10099F00202008F87F2B2006F322920280CF7F00C1
:1009AF00B4070050052444F8E6FF22286E756C6CDE
:1009BF002900D20112058A3001F8C201784D30D5D5
:1009CF000108F60206302D5043495812058A2403B8
:1009DF00B405004001E49009D5931205B6743A129C
:0A09EF0005B6D203754D040208029C
:10020A00E9D2E7C933E833F892D5EDD2E7CD33EC3A
:07021A0033FC5002B2D522B3
:10022100EC30E7100FBF000C0EBE00080DBD00043E
:100231000BEB6014A2D5EB13FCED92E7FD2274FFEA
:10024100FCFDFEFF22E480F8A2D574FF13FC7D8043
:03025100E480EF57
:10025400F920E72824F950037907E4F42402FB1871
:10026400DBFDE624FB5014E9600DE4F618E604F621
:0F027400B40A08E4F6D9F57401F60A22C2D522BD
:10028300ED33EC3392D5FA602AB4FF33EDC2E77B4A
:10029300FF60067A0279A8E4227A0279B120D504B4
:1002A3007A0279AC224E614E002B494E46002D490D
:1002B3004E4600E47A08F608DAFC7B00740722E86D
:1002C300C0E0ECC0E0EDC0E0EEC0E0EFC0E0EA75F6
:1002D300F010A4CAABF075F04DA42BFBE435F0FC91
:1002E300EA2410FAEB34C5FBEC34D9FCEDC2E7FF8A
:1002F30075F056A4F42411C5F0F434C58FF0A42A84
:10030300E5F03BE43CF620E7141204AED0E0FFD066
:10031300E0FED0E0FDD0E0FC12012F8014F40412C3
:1003230004AED0E0FFD0E0FED0E0FDD0E0FC120050
:1003330026D0E0F8E6FAEDD2E7CD33EC332482FBA6
:10034300E4C3CF33CFCE33CECD33CD33DBF37B0713
:1003530075F00A846004F6081B0AE5F0F6088FF0CE
:10036300740AA4FFACF08EF0740AA42CFEACF05017
:10037300010C8DF0740AA42CFDE435F0F608DBDEE5
:03038300740722DA
:1003860002023FE86480F8E933E83360110460F064
:10039600ED33EC337009E8FCE9FDEAFEEBFF2204DD
:1003A60060DED3EB9FEA9EE99DE8C2E78CF0C2F7D8
:1003B60095F0400CE8CCF8E9CDF9EACEFAEBCFFBA4
:1003C60012020A85D0F05804700320D5B3E80470F1
:1003D600075002B2D502024992D5EC0460F7E4CC8C
:1003E600C0E0C398F8603B94186008400DD0E0FB6D
:1003F600020221E4FBFAC9FC8028E830E406E4C9DD
:10040600FBE4CAFCE830E305E4C9CACBFCE85407C0
:100416006010F8C3E913F9EA13FAEB13FBEC13FCCB
:10042600D8F130F52FC3E49CFCEF9BFFEE9AFEED6E
:1004360099FDD0E0FBEF4E4D4C701222DB03020219
:1004460046EC2CFCEF33FFEE33FEED33FDED30E7EB
:10045600EB020221EF2BFFEE3AFEED39FDD0E0FB79
:1004660050130BBB0003020249ED13FDEE13FEEF22
:0804760013FFEC13FC0202214C
:10047E003F8000004120000042C80000447A000086
:10048E00461C400047C35000497424004B18968008
:10049E004CBEBC205A0E1BCA6753C21C749DC5AEFF
:1004AE00FB60065407601C23231204DCEB543860F7
:1004BE00091204C81204D7120026ECF8EDF9EEFA70
:1004CE00EFCB22EB1204D780F1543803241C900496
:1004DE007EFE93FC0EEE93FD0EEE930ECE93FF2258
:03000000020A9061
:0C0A9000787FE4F6D8FD758150020AD78B
:1004EE00BB010689828A83E0225002E722BBFE020C
:0904FE00E32289828A83E493223F
:10050700BB010CE58229F582E5833AF583E02250A9
:1005170006E92582F8E622BBFE06E92582F8E222F3
:0D052700E58229F582E5833AF583E493220D
:10053400BB010689828A83F0225002F722BBFE01A6
:02054400F322A0
:0E054600C3E49FFFE49EFEE49DFDE49CFC22C6
:10055400FAE6FB0808E6F925F0F618E6CA3AF622A8
:10056400D083D082F8E4937012740193700DA3A326
:1005740093F8740193F5828883E47374029368603A
:06058400EFA3A3A380DF3A
:100CD000EFB40A07740D120CDB740A309811A8994E
:100CE000B8130CC2983098FDA899C298B811F63084
:070CF00099FDC299F599225C
:100A9C00020C7BE493A3F8E493A34003F68001F2E9
:100AAC0008DFF48029E493A3F85407240CC8C3335B
:100ABC00C4540F4420C8834004F456800146F6DF2A
:100ACC00E4800B0102040810204080900DB3E47EFA
:100ADC00019360BCA3FF543F30E509541FFEE4931F
:100AEC00A360010ECF54C025E060A840B8E493A3E6
:100AFC00FAE493A3F8E493A3C8C582C8CAC583CA11
:100B0C00F0A3C8C582C8CAC583CADFE9DEE780BEC8
:010DB700003B
:00000001FF
