:10032F00B5C8BAF2C9CFCEBBBBFAD6B8C1EE00B5CD
:10033F00B1C7B0B2A8D0CEA3BAB7BDB2A800B5B1FD
:10034F00C7B0B2A8D0CEA3BAC8FEBDC7B2A800B579
:10035F00B1C7B0B2A8D0CEA3BAD3E0CFD2B2A80063
:10036F00B5B1C7B0B2A8D0CEA3BABEE2B3DDB2A8C2
:10037F00000810081008107FFE200412480810050E
:10038F00A002400180018007E009901188118811B7
:01039F0088D5
:1005CE001205E31206667BFF7A03792F7D017F0405
:0505DE0012040180FE83
:1004E2008F0AE50AB401087BFF7A03793E8025E58D
:1004F2000AB402087BFF7A03794D8018E50AB40337
:10050200087BFF7A03795E800BE50AB4040D7BFF5A
:0C0512007A03796F7D017F04120401223E
:10045500EFC4540FF508EF540FF509AF0812065E07
:10046500E508B40109AF097E001206078028E508F2
:10047500B40209AF097E00120618801AE508B40314
:1004850009AF097E00120629800CE508B40407AF00
:0B049500097E0012063AAF080204E2E4
:0D057C00C2A1C2A27F011205898C90D2A2FB
:10058900E4FEEEC39F5009E4FD0DBD0AFC0E80F2A6
:01059900223F
:1005B7007590FFC2A0D2A1D2A2E4FFE59030E70474
:0605C7000FBF0AF7C2A2FB
:0105CD00220B
:10051E00C2A37F01120589D2A37F301205FD7F0190
:10052E001205897F301205FD7F011205897F0C129D
:10053E0005FD7F011205891205FD7F011205897FD8
:04054E00060205FD9F
:0705F6007F341205FD7F3484
:0A05FD00AC07C2A012057CC2A222C6
:0A064B00AC07D2A012057CC2A22267
:10059A001205B7D2A0D2A1C2A27F01120589D2A2A6
:0C05AA00120589AC90C2A2120589AF04B2
:0105B6002222
:04023900AB07AA0560
:10023D001205F6EA541F2480F517EAD3941FEBC478
:10024D00540F40052488F980032480F9EB540FFFE7
:10025D00E47E80A807088005CEC313CE13D8F9F528
:10026D00168E15AF171205FDAF011205FD12059A79
:10027D0012059AAB07EB7B00FA12059AEFFBEB42E6
:10028D0016EA4215E515FBAA16AF171205FDAF01CB
:10029D001205FDAF0312064BAF0212064B7F36124D
:0702AD0005FD7F300205FD95
:100552001205F6E4FBEB2480FF1205FD7F801205F5
:10056200FDE4FAE4FF12064B0ABA20F70BBB20E5C2
:0A0572007F361205FD7F300205FD03
:10040100EFC39401404DED94014048EFD394045063
:1004110042ED9408503DBF0107ED247FF513801C88
:10042100BF0207ED248FF5138012BF0307ED248768
:10043100F5138008BF0405ED2497F513AF131205DA
:10044100FD120112FF600C12064B740129F9E43A06
:03045100FA80EE40
:010454002285
:100026001F1F1F1F1F1F1F1F1F1F1F1F1F1F1F1FDA
:100036001F1F1F1F1F1F1F1F1F1F1F1F1F1F1F1FCA
:1000460000000000000000000000000000000000AA
:10005600000000000000000000000000000000009A
:100066001F1E1D1C1B1A1918171615141312111012
:100076000F0E0D0C0B0A0908070605040302010002
:10008600000102030405060708090A0B0C0D0E0FF2
:10009600101112131415161718191A1B1C1D1E1FE2
:1000A600100F0E0D0C0B0A090807060504030302C0
:1000B6000101000001010203030405060708090AFD
:1000C6000B0C0D0E0F101112131415161718191A02
:1000D6001B1C1D1E1E1F2020212120201F1E1E1D31
:1000E6001C1B1A1918171615141312111F1E1D1C86
:1000F6001B1A191817161514131211100F0E0D0CC2
:0C0106000B0A09080706050403020100AB
:08065500011C3F0318FF0066C1
:10000300E4FDFCC3ED9FEC9E5015E4FBFA0BBB0033
:0F001300010AEB646E4A70F50DBD00010C80E42C
:0100220022BB
:1002B400751401751326AD137F03120239E5145426
:1002C400037007AD137F04120239AF140514EF5401
:1002D400077007AD137F051202391513E513C39494
:1002E4000150D37513037D26AF13120239E513248D
:1002F400FDFFE434FFFE7C007D05120158ED70071C
:100304007D25AF13120239E51324FDFFE434FFFE0B
:100314007C007D0A120158ED70077D24AF13120290
:0A032400390513E513C3948040BCB3
:01032E0022AC
:0606660012051E0202B4A1
:0603A0008E0A8F0B8D0C8C
:1003A6007F011205FD1202B4E4F51BF51DE51BC322
:1003B600951C401DE4F51BE50C6016E4F50DE51DE6
:1003C6002404FFAD0D120239050DE50DC3941F403F
:1003D600EDE51D2405FFAE0BE51B2EF51BAB18AA9C
:1003E60019A91AF58275830012012BFD120239E54F
:0A03F6001DC3947A5004051D80B366
:0104000022D9
:100607007518FF751900751A26751C3FE4FD02035E
:01061700A042
:100618007518FF751900751A66751C3FE4FD02030D
:01062800A031
:100629007518FF751900751AA6751C4BE4FD0203B0
:01063900A020
:10063A007518FF751900751AF2751C1FE4FD02037F
:01064A00A00F
:1005E300758920758DFD758BFD759850D2AFD2AC92
:0305F300D28E2283
:08065E008F993099FDC2992229
:030023000204A034
:1004A000C0E0C0F0C083C082C0D075D000C000C022
:1004B00001C002C003C004C005C006C007209907E0
:1004C000C298AF99120455D007D006D005D004D0F9
:1004D00003D002D001D000D0D0D082D083D0F0D0D1
:0204E000E03208
:030000000201AD4D
:0C01AD00787FE4F6D8FD75811D0201F496
:10011200BB010689828A83E0225002E722BBFE02EB
:09012200E32289828A83E493221E
:10012B00BB010CE58229F582E5833AF583E0225089
:10013B0006E92582F8E622BBFE06E92582F8E222D3
:0D014B00E58229F582E5833AF583E49322ED
:10015800BC000BBE0029EF8DF084FFADF022E4CC8B
:10016800F875F008EF2FFFEE33FEEC33FCEE9DEC54
:10017800984005FCEE9DFE0FD5F0E9E4CEFD22ED9A
:10018800F8F5F0EE8420D21CFEADF075F008EF2FE4
:10019800FFED33FD4007985006D5F0F222C398FDD5
:0501A8000FD5F0EA2272
:1001B9000205CEE493A3F8E493A34003F68001F289
:1001C90008DFF48029E493A3F85407240CC8C33347
:1001D900C4540F4420C8834004F456800146F6DF16
:1001E900E4800B0102040810204080900655E47E4B
:1001F900019360BCA3FF543F30E509541FFEE4930B
:10020900A360010ECF54C025E060A840B8E493A3D1
:10021900FAE493A3F8E493A3C8C582C8CAC583CAFC
:10022900F0A3C8C582C8CAC583CADFE9DEE780BEB4
:01065D00009C
:00000001FF
